:1000000017C1000031C100002FC100002DC1000048
:100010002BC1000029C100000C9414090C94230981
:1000200023C1000021C100001FC100001DC100004C
:100030001BC1000019C1000017C1000015C100005C
:1000400013C1000011C100000FC100000DC100006C
:100050000BC1000009C1000007C1000005C100007C
:100060000C94FF090C940A0AFFC00000FDC00000B8
:10007000FBC00000F9C00000F7C00000F5C00000A0
:10008000F3C00000F1C00000EFC00000EDC00000B0
:10009000EBC00000E9C00000E7C00000E5C00000C0
:1000A000E3C00000E1C00000DFC00000DDC00000D0
:1000B000DBC00000D9C00000D7C00000D5C00000E0
:1000C000D3C00000D1C00000CFC00000CDC00000F0
:1000D000CBC00000C9C00000C7C00000C5C0000000
:1000E000C3C00000C1C00000BFC00000BDC0000010
:1000F000BBC00000B9C00000B7C00000B5C0000020
:10010000B3C00000B1C00000AFC00000ADC000002F
:10011000ABC00000A9C00000A7C00000A3C400003D
:10012000A3C00000A1C000009FC000009DC000004F
:100130009BC0000099C0000097C0000095C000005F
:1001400093C0000091C000008FC000000C9474099F
:100150008BC0000089C0000087C0000085C000007F
:1001600083C0000081C000007FC000007DC000008F
:100170007BC0000079C0000077C0000075C000009F
:1001800073C0000071C000006FC000006DC00000AF
:100190006BC0000069C0000067C0000065C00000BF
:1001A00063C0000061C000005FC000005DC00000CF
:1001B0005BC0000059C0000057C0000055C00000DF
:1001C00053C0000051C000004FC000004DC00000EF
:1001D0004BC0000049C0000047C0000045C00000FF
:1001E00043C0000041C000003FC000003DC000000F
:1001F0003BC000000C9420140C94D8140F0411047C
:1002000013041504170419041B041D04DB0B010C53
:10021000280C510C5A0C5F0CA40CA90CC80CCF0C68
:100220006B0C730C7B0C860C880C8A0C920C9A0C51
:1002300011241FBECFEFCDBFDFE2DEBF10E2A0E092
:10024000B0E2E2EDFBE202C005900D92AA3BB107DD
:10025000D9F72DE2AAEBB0E201C01D92AC3FB20784
:10026000E1F794D20C94E715CBCE84E0809356004E
:100270008CE1C0D3809363008BEB8093660080E8B1
:100280008093650081E08093600088ED84BF1092C8
:10029000410083E080935000809151008330E1F76A
:1002A0008091500081608093500088E180935500D8
:1002B0008091510080FFFCCF80915000806180933D
:1002C00050008091510084FFFCCF88ED84BF84E012
:1002D000809340000895E0E7F0E085818E7F85837C
:1002E000E0E0FAE08FEB9DE586A397A380EE9EE227
:1002F00080A391A382E0808308958091200A909149
:10030000210A813E2EE2920718F020919E2306C01A
:10031000803E2EE2920721F020919B2320936A00D9
:1003200020910520222321F080910520815033C0A7
:10033000885F9A42813D974080F11092BA20809167
:10034000BB209091BC20A091BD20B091BE20019611
:10035000A11DB11D8093BB209093BC20A093BD2014
:10036000B093BE208091BB209091BC20A091BD2075
:10037000B091BE20892F9A2FAB2FBB278093BE232D
:100380008091BB209091BC20A091BD20B091BE2057
:100390008093BD2386E08093052080910720909173
:1003A00008200196B1F4809109208F3F91F080914F
:1003B0000620811106C0809106208150809306207E
:1003C00008958091140190911501809307209093D6
:1003D00008200895009709F45EC00CF457C040E06F
:1003E00020916B0030E020939C2330939D2320913B
:1003F0009C2330919D233695322F222737952795C0
:1004000020939C2330939D2350916A0020919C233C
:1004100030919D23250F311D20939C2330939D23E4
:10042000000020919C2330919D232817390728F440
:1004300010929C2310929D23089520919C2330912B
:100440009D23280F391F2115304238F08FEF9FE18F
:1004500080939C2390939D23089520919C23309119
:100460009D23442329F0A901481B590BCA0102C04E
:10047000820F931F80939C2390939D2380919C23B4
:1004800090919D238F7780936A000895919581952F
:10049000910941E0A5CF0895CF93DF93C091200A41
:1004A000D091210A80910320909104209E01281B65
:1004B000390B20939F233093A0238091BA20811180
:1004C0004BC080919F239091A0238E3C9F4FD4F4EA
:1004D00080919F239091A0238B369F4F9CF0809119
:1004E0000220882321F080910220815008C0809151
:1004F0006A0080939E2381E08093BA208CE08093F1
:1005000002202AC08CE08093022080919F2390914A
:10051000A0238A369F4F1CF08FEF9FEF02C081E02F
:1005200090E08093992390939A2380919F239091B8
:10053000A0232091992330919A2360E370E00E94D8
:10054000BE15261B370B2093992330939A23809155
:10055000992390919A233EDF8091BA20813029F52A
:1005600080919F239091A023C39794F080910220C3
:10057000882331F08091022081508093022015C0A1
:1005800080916A0080939B2383E08093BA200DC002
:1005900080919F239091A023873991051CF481E0DD
:1005A00090E002C08FEF9FEF15DFC0930320D09340
:1005B0000420DF91CF9108958617970779F0681787
:1005C000790728F49C01261B370BB90109C086174F
:1005D000970718F4681B790B03C0089560E070E07A
:1005E000CB010895CF93DF9380910020909101205B
:1005F000892B51F0809100209091012001978093E8
:1006000000209093012043C080E490E0809300207C
:100610009093012080910720909108200196B9F1D4
:10062000809114019091150120910920263018F431
:1006300067E771E002C06EEE72E00E94AA15EC015D
:1006400080910720909108208C179D0758F46091A5
:10065000072070910820CE01AFDF029718F080ECE0
:100660009DE511C08091072090910820C817D907F7
:1006700070F46091072070910820CE019DDF0297F1
:1006800030F08FEB9DE58093360A9093370ADF9127
:10069000CF910895AC01460F571F861B970B2091F1
:1006A000200A3091210A24173507C8F72091200A23
:1006B0003091210A8217930790F70895E0E8F6E059
:1006C0008FE0808385E0848308951F93CF93DF9329
:1006D000C0E4D0E0198180E4898340E250E064ED19
:1006E0007DE280E290E00E94390F1983DF91CF9183
:1006F0001F9108951F93CF93DF93C0E4D0E0198139
:1007000080E4898387ED97E20E94810F81E00E9457
:10071000930F1983DF91CF911F91089508950F933F
:100720001F93842F242F30E0215831099DE7929F99
:10073000A001939F500D112490910920953048F409
:10074000843810F049585E4F9091C42027E731E07B
:1007500004C09091C4202EEE32E0929FB001939F8E
:10076000700D11249A01260F371FA9014850584DCA
:100770000FE813E02DE730E060E00E944B131F917B
:100780000F9108951CBEEEEFF0E409949EDF809176
:10079000D42D882369F080E2E4EDFDE2A7EDB7E215
:1007A00001900D928A95E1F71092D727A3DFEADF37
:1007B00087E08093A200789458DDB0DF86D765D1BA
:1007C00088D160E080E01FD10BD18CE0FFD04AD50A
:1007D000EED507D673DF60EA70E28AEA93E20E9400
:1007E000E015000000000000000000000000000014
:1007F00000000000000000000000000000008091E8
:10080000BF20882371F3E091D6258E2F90E08830A9
:100810009105A0F4FC01E250FF4F0C94D11585D155
:100820000DC0F5D10BC07CD209C000D307C08CD35A
:1008300005C012D403C011D401C082D41092BF20CD
:10084000D0CF08950895809114018093B3238091AF
:1008500015018093B423809124018093B523809166
:1008600025018093B6238091200A8093BF23809135
:10087000210A8093C0238091140190911501863440
:10088000914080F08091140190911501893A914036
:1008900048F480911401909115018093F42D909368
:1008A000F52D00008091C220882339F014DD1092CC
:1008B000C22081E08093C12008958091C1208823C7
:1008C00041F08091BA20833019F417DD8BDE01C02E
:1008D000E3DD8091C020882351F080911401909134
:1008E00015018093F42D9093F52D1092C0208091E6
:1008F00009202091140130911501853028F481E000
:100900002737314030F004C081E02E3E324008F0FD
:1009100080E08093C42008950F931F9381E080931B
:10092000C7208093C2200FE813E02DE730E048EFA6
:1009300057E260E081E80E944B132DE730E045E785
:1009400058E260E082E80E944B132DE730E042EF6E
:1009500058E260E083E80E944B132DE730E04FE659
:1009600059E260E084E80E944B132DE730E04CEE42
:1009700059E260E085E80E944B132DE730E049E63C
:100980005AE260E086E80E944B1381E01F910F91CC
:1009900008951092C720089581E0089581E0089598
:1009A00010922002982F9C7193689093200287FFE9
:1009B00003C090E182E002C090E080E0892B809348
:1009C000210210922202109226020895E0E0F2E045
:1009D00010AA836880AB80E181AB12AA16AA0895A1
:1009E000E0E0F2E010A683E880A78FE281A712A6DC
:1009F00016A60895AAECB1E092E09C93E82FF0E0EF
:100A000084911C920895909171009D7F9093710044
:100A100010920002623011F09CE101C09EE19093BF
:100A2000010290E490930202811102C080E401C0AF
:100A300080EC80930302613011F084E001C083E018
:100A40008093040280E2D6DF80930C0281E2D2DF41
:100A500080930D02109218021092190281E0809387
:100A60000002BECF1F920F920FB60F9211248F93E8
:100A7000000000000000000081E0809323028F91BD
:100A80000F900FBE0F901F901895CF93DF93E0E764
:100A9000F0E082818B7F8283C0E2D3E08DE08883A7
:100AA00080E4898389E08A8383E3A4DF888782E303
:100AB000A1DF898787E39EDF8A8786E39BDF8B87B9
:100AC000E0E2F6E08081836080831482DF91CF9141
:100AD0000895E0E7F0E080818E7F808383E8809353
:100AE00000010895E0E0F1E0108A80E4808B10A21C
:100AF00080A310AA80ABE0E4F1E010828083109222
:100B0000C6201092C52081E08093C4201092A823B3
:100B10001092A9231092A6231092A72308958093E0
:100B2000D62581E08093BF200895CF93DF93109264
:100B30000920D8DFC0E0D1E01EAA84E288AB19AA60
:100B400049E54AAB32E03BAB60910B2070910C2041
:100B50006CAB7DAB67ED75E268AF79AF1AAE9BE326
:100B60009CAF93E090933D0110923E0128A920682C
:100B700028AB10924601E0E4F1E08083109241013D
:100B8000409342019093430140910D2050910E20DB
:100B9000409344015093450146EC53E24093480191
:100BA0005093490110924A0129E320934C019093FC
:100BB0004D0110924E01908190689083188A90E4C4
:100BC000988B888B198A95E99A8B90E19B8B4EEED6
:100BD00052E04C8B5D8B888F398F1A8E88EF97E2AD
:100BE0008C8F9D8F1E8E68EC70E084EF91E052DD5B
:100BF00088EC90E0809307209093082081E0809318
:100C0000062088898068888BDF91CF9108951F9393
:100C1000CF93DF9311E01093092064DFC0E0D1E0AF
:100C200018AA80E488AB84E088AB19AA1AAA4BE41E
:100C30004BAB1CAA1DAA1EAA8AE090E288AF99AF0E
:100C40001AAE60EA6CAF38E030933D0110923E017D
:100C500088A9806A88ABE0EAF8E085E58083808334
:100C600010924601E0E4F1E084E2808310924101B9
:100C700099E59093420122E020934301A0910B203B
:100C8000B0910C20A0934401B0934501A7EDB5E2CB
:100C9000A0934801B093490110924A019BE39093BD
:100CA0004C0193E090934D0110924E019081906819
:100CB000908388A319A295E99AA34BA34EEE52E024
:100CC0004CA35DA368A739A71AA666EE7AE26CA7C3
:100CD0007DA71EA6888B198A9A8B90E19B8B4C8BE3
:100CE0005D8B888F298F1A8E88EF97E28C8F9D8F6E
:100CF0001E8E68EC70E084EF91E0CCDC88EC90E034
:100D000080930720909308201093062088A1806884
:100D100088A388898068888BDF91CF911F9108957F
:100D20001F93CF93DF9312E010930920DBDEC0E026
:100D3000D1E01EAA84E288AB19AA39E53AAB1BAB15
:100D400040910B2050910C204CAB5DAB47ED55E230
:100D500048AF59AF1AAE9BE39CAF93E090933D012F
:100D600010923E0128A9206828AB10924601E0E4C9
:100D7000F1E080831092410130934201909343014E
:100D800020910D2030910E20209344013093450195
:100D900026EC33E2209348013093490110924A0136
:100DA00029E320934C0190934D0110924E019081C4
:100DB00090689083188A90E4988B888B198A45E90B
:100DC0004A8B90E19B8B2EEE32E02C8B3D8B888FF3
:100DD000198F1A8E68EF77E26C8F7D8F1E8E88A335
:100DE00019A24AA39BA32CA33DA384E388A719A718
:100DF0001AA686EE9AE28CA79DA71EA668EC70E064
:100E000084EF91E047DC88EC90E08093072090939A
:100E1000082081E08093062088898068888B88A1DB
:100E2000806888A3DF91CF911F9108951F93CF937E
:100E3000DF9313E01093092055DEC0E0D1E010925B
:100E40004601E0E4F1E084E280831092410129E56B
:100E50002093420192E09093430140910B205091E6
:100E60000C20409344015093450147ED55E24093D7
:100E700048015093490110924A019BE390934C0121
:100E800010934D0110924E019081906890831EAA9C
:100E900088AB19AA2AAB1BAB20910D2030910E20F4
:100EA0002CAB3DAB26EC33E228AF39AF1AAE99E359
:100EB0009CAF10933D0110923E0198A9906898ABA9
:100EC00018A250E458A394E098A319A21AA24BE4E4
:100ED0004BA31CA21DA21EA22AE030E228A739A71C
:100EE0001AA630EA3CA728E02DA71EA698A1906A72
:100EF00098A395E59093A008188A588B888B198A37
:100F000085E98A8B4B8B8EEE92E08C8B9D8B388F94
:100F1000298F1A8E88EF97E28C8F9D8F1E8E68EC3A
:100F200070E084EF91E0B6DB88EC90E080930720DE
:100F30009093082081E08093062088898068888BC0
:100F4000DF91CF911F9108951F93CF93DF9314E00A
:100F500010930920C7DDC0E0D1E018AA80E488AB77
:100F600018AB19AA1AAA3BE43BAB1CAA1DAA1EAADD
:100F70008AE090E288AF99AF1AAE50EA5CAF88E0A1
:100F800080933D0110923E0198A9906A98AB95E537
:100F90009093A00810924601E0E4F1E094E290837F
:100FA0001092410129E52093420122E02093430160
:100FB00060910B2070910C20609344017093450167
:100FC00067ED75E2609348017093490110924A0100
:100FD0002BE320934C0123E020934D0110924E010E
:100FE000208120682083988B198A45E94A8B3B8BA6
:100FF0002EEE32E02C8B3D8B588F898F1A8E68EF46
:1010000077E26C8F7D8F1E8E98A319A24AA39AE473
:101010009BA32CA33DA393EC98A789A71AA686EEC1
:101020009AE28CA79DA71EA668EC70E084EF91E081
:1010300031DB88EC90E0809307209093082081E0DA
:101040008093062088898068888B88A1806888A31F
:10105000DF91CF911F910895FFCFCF93DF9386E06B
:10106000809309203FDDC0E0D1E01EAA84E288AB76
:1010700019AA39E53AAB93E09BAB40910D20509112
:101080000E204CAB5DAB46EC53E248AF59AF1AAE05
:1010900029E32CAF90933D0110923E0128A92068CE
:1010A00028AB10924601E0E4F1E080831092410108
:1010B0003093420122E02093430140910B20509154
:1010C0000C20409344015093450147ED55E2409375
:1010D00048015093490110924A013BE330934C017F
:1010E00090934D0110924E01908190689083188AE0
:1010F00090E4988B888B198A95E99A8B90E19B8B69
:101100004CED55E04C8B5D8B888F298F1A8E88EFC4
:1011100097E28C8F9D8F1E8E68EC70E084EF91E0DB
:10112000B9DA80E991E0809307209093082081E06C
:101130008093062088898068888BDF91CF910895FD
:10114000CF93DF9387E080930920CCDCC0E0D1E02F
:101150001EAA84E288AB19AA39E53AAB93E09BABAF
:1011600040910D2050910E204CAB5DAB46EC53E20C
:1011700048AF59AF1AAE29E32CAF90933D011092BE
:101180003E0128A9206828AB10924601E0E4F1E076
:101190008083109241013093420122E02093430169
:1011A00040910B2050910C204093440150934501F5
:1011B00047ED55E2409348015093490110924A018E
:1011C0003BE330934C0190934D0110924E0190817E
:1011D00090689083188A90E4988B95E2988B198A8E
:1011E00095E99A8B90E19B8B4CED55E04C8B5D8B98
:1011F000888F298F1A8E88EF97E28C8F9D8F1E8E95
:1012000068EC70E084EF91E045DA80E991E080934A
:1012100007209093082081E08093062088898068C9
:10122000888BDF91CF9108951F920F920FB60F9286
:1012300011248F9381E0809303018F910F900FBE53
:101240000F901F9018951F920F920FB60F921124B6
:101250008F9382E0809303018F910F900FBE0F90C8
:101260001F901895E0E7F0E083818C7F8383848171
:101270008C7F848380818D7F8083E0E8F1E080EC47
:101280008283128688EC81831186A0E0B8E034E086
:101290003C9323E011962C93119714961C9214976B
:1012A00085ED91E096968D939C93979716961C9258
:1012B0001697E0E4F8E030832183148286A397A395
:1012C0001682E0E6F6E0808180618083E0E4F9E068
:1012D00083E18183148282E08683A6A3B7A310A64C
:1012E00011A681E0808308951F920F920FB60F928E
:1012F00011242F933F934F935F938F939F93CF939B
:10130000DF931F92CDB7DEB78FEF80934C098091AA
:101310000920873031F480912C02898390912D022D
:1013200002C090912C028091C320891B20916809F2
:101330003091690982308CF02A3F374070F4209157
:1013400068093091690989301CF481E090E002C09D
:1013500086E090E0820F931F18C0209168093091B9
:1013600069098F3FB4F42730310598F0209168095E
:1013700030916909883F1CF081E090E002C086E06E
:1013800090E0A901481B590BCA01809378099093FA
:1013900079090F90DF91CF919F918F915F914F913C
:1013A0003F912F910F900FBE0F901F901895E0E77F
:1013B000F0E083818F7E8383E0E4F6E080818A6AB7
:1013C00080838FEF848388E5828BE0EAF8E080E316
:1013D000838384EC858387E08683178288E1848316
:1013E0000895E0E7F0E08381877F8383E0ECF8E015
:1013F00080E48083118288E58093550608951F92CA
:101400000F920FB60F92112400000F900FBE0F9095
:101410001F9018951F920F920FB60F9211248F9361
:10142000EF93FF93E0EAF8E080818083FF91EF91F2
:101430008F910F900FBE0F901F9018959FB7F89443
:10144000A0E5B0E016968C911697897F16968C933E
:101450001697E0E6F0E080E885838BEB86831696AE
:101460008C911697846016968C938081816080831E
:101470009FBF08959FB7F894E82FF0E0E059FF4F21
:1014800060958081682360839FBF0895CF938630E5
:1014900011F0C0E001C0C8E18091510081FD0DC094
:1014A0009FB7F894809150008260809350009FBF56
:1014B0008091510081FFFCCFC1DF6C2F636084E419
:1014C00090E0BCD460E480E0CF91D4CF8091C8207C
:1014D00008958091C820813009F45BCA0895F0D046
:1014E000FC0183818093C820811101C015CA81E06D
:1014F00008959091C625892F807697FF07C0803484
:1015000091F48091C72581110EC048CA803459F4E6
:101510008091C725811107C08091CC259091CD2560
:10152000892B09F039CA80E008958091C8258F770A
:101530000C94CD129091D020911102C080E00895BA
:10154000E091CD20F091CE200190F081E02D9481AA
:101550008917A0F7E093CB20F093CC202281338130
:101560002E0F3F1FE217F30798F49181943061F436
:101570009281891309C09381691306C0E093CB203F
:10158000F093CC2081E008959081E90FF11DEACF1E
:10159000E093CB20F093CC20D1CFE091CD20F091FF
:1015A000CE200190F081E02D228133812E0F3F1F4C
:1015B000FC014081E40FF11DE217F30748F481813B
:1015C000843031F0853039F08081E80FF11DF4CF9F
:1015D00080E090E00895CF0108951F93CF93DF93AB
:1015E000182FA8DF882339F1C091CB20D091CC20CF
:1015F000CE01D3DFEC01892B41F04C815D816B8101
:101600008A81D8D78111F4CF16C0E091CD20F09116
:10161000CE2092818381E92FF82FE10FF11DE10F98
:10162000F11D0190F081E02D0190F081E02DDF911E
:10163000CF911F91099480E0DF91CF911F91089580
:10164000EF92FF921F93CF93DF93C82F60E072DF7A
:10165000811102C010E02DC0E091CD20F091CE208C
:1016600092818381E92FF82FEC0FF11DEC0FF11D12
:10167000E080F180D7011696ED91FC9117970995BE
:10168000682F8C2F57DF182F882321F3C091CB2090
:10169000D091CC20CE0181DFEC01892B21F08A8111
:1016A0000E940714F7CFD7011296ED91FC91139782
:1016B0000995812FDF91CF911F91FF90EF900895B1
:1016C0008091CB209091CC200895FBC6CF93809140
:1016D000D020811108C01092D0201092D4201092F6
:1016E000D520CF910895C0E0E091CD20F091CE209B
:1016F0000190F081E02D8481C81768F78C2FA0DF5E
:10170000CF5FF2CFCF938091D0208823F1F0C0E05B
:10171000E091CD20F091CE20A081B18114968C91E2
:10172000C81798F492818381E92FF82FEC0FF11DEF
:10173000EC0FF11D0190F081E02D0084F185E02D8A
:10174000309709F00995CF5FE3CFCF910895EF92DD
:10175000FF920F931F93CF93DF931F92CDB7DEB706
:101760001092D0251092D1251092D2251092D32517
:101770001092D4251092D5258091C62587FF07C0E9
:101780002091CC253091CD25232B09F44EC3982FE1
:101790009076903409F00BC1E091C7258E2F90E030
:1017A000FC01E05AF109EA30F10508F0CDC2EA5F28
:1017B000FE4F0C94D11581E08093C02080910720CA
:1017C000909108208093B723809107209091082062
:1017D0009093B82380919E238093B92380919B237B
:1017E0008093BA2380916A008093BB2380916B0021
:1017F0008093BC236091CC257091CD258AEA93E239
:10180000D4C0109200088091C8259091C92580937A
:101810003608909337088091CA258F70809300080E
:101820006091CC257091CD2586EC93E2BCD62091B9
:101830000D2030910E208091CC259091CD25281738
:10184000390709F4F0C280930D2090930E2026C032
:10185000109240088091C8259091C9258093760800
:10186000909377088091CA258F708093400860918B
:10187000CC257091CD2587ED95E295D620910B2052
:1018800030910C208091CC259091CD2528173907D7
:1018900009F4C9C280930B2090930C2080910920F9
:1018A00051C010926809109269098091C8258093EF
:1018B000C320B9C28091C82580932406B4C2E091A8
:1018C000C825F091C925E830F10508F03DC2E05F78
:1018D000FE4F0C94D11560E080E095D88091CA2528
:1018E0005FD880E02FC060E080E08DD88091CA256D
:1018F00057D881E027C061E081E085D88091CA2572
:101900004FD88091CB2562D882E01CC083E01AC0FA
:1019100084E018C060E080E076D88091CA2540D885
:1019200085E010C061E080E06ED88091CA2538D88B
:1019300086E008C062E080E066D88091CA258068B1
:101940002FD887E0ECD86FC28091C8258093840699
:101950006AC28091C8259091C925892B91F00E9477
:10196000650380E2E4EDFDE2A7EDB7E201900D92A0
:101970008A95E1F781E08093D7270E947A030E943D
:101980006503E9E7F0E091E088EDF89484BF908387
:101990006091CC257091CD258AEA90E206C06091D5
:1019A000CC257091CD2589EA90E2FDD53CC29111FC
:1019B000CBC187FFFCC02091CC253091CD252115CE
:1019C000310509F4C1C18F7109F09EC08091C7250E
:1019D000863071F0883009F48EC08111B5C1223093
:1019E000310509F0B1C162E070E084ED90E2DDCF35
:1019F0008091C8259091C925292F332722303105A0
:101A0000A1F064F42130310509F09EC180911920C4
:101A100090911A20DC016C9170E05BC0233031059D
:101A200089F12F30310509F18FC1E0911920F09132
:101A30001A202189821708F087C19927880F991FDA
:101A4000880F991FE0911B20F0911C20E80FF91FCF
:101A500080819181FC0162817381A5D5E091CE25C1
:101A6000F091CF2582E0818335C080911D20909137
:101A70001E20009709F468C1DC0112966D917C91DB
:101A8000139727C099278130910569F038F00297A4
:101A900009F05AC168E08AE890E208C064E070E0AA
:101AA0008CE990E216C067E083E990E2282FAAE76C
:101AB000B0E2FC01819190E08D939D938E2F821B6B
:101AC0008617C0F3660F6E5F6093782070E088E73A
:101AD00090E269D58091CC259091CD252091D0259B
:101AE0003091D1258217930708F09DC18093D025AE
:101AF0009093D12598C12130310509F025C161E0CD
:101B000070E080ED90E251CF8130C9F58091C7251A
:101B10008A3009F019C12130310509F015C18091D1
:101B2000D020882309F410C1E090CA25F090CB257D
:101B30000091CD201091CE20D801ED91FC918481AF
:101B4000E81608F001C160E08E2DF4DC882309F46A
:101B5000FBC0FF24EE0CFF1CF801828193818E0DE7
:101B60009F1DDC01ED91FC910680F781E02D099528
:101B70008093D22061E070E082ED90E216CF823057
:101B800009F0E2C08091C7258111DEC02230310505
:101B900009F0DAC08091CA255ED590E08093C92013
:101BA0009093CA2062E070E089EC90E2FECE8F71E3
:101BB00009F07DC08091C725833009F4C5C018F4B1
:101BC0008130A1F0C1C0853019F0893039F1BCC035
:101BD0008091CC259091CD25892B09F0B5C085E960
:101BE0009AE08093D2259093D3251DC18091CC2576
:101BF0009091CD25892B09F0A7C08091C82590919F
:101C0000C925019709F0A0C08091D4209091D520DA
:101C10008D7F8093D4209093D52005C18091CC25D1
:101C20009091CD25892B09F08FC0BAD4882309F46F
:101C30008BC02091C8253091C9253327E091192008
:101C4000F0911A20818990E08217930708F47CC0F4
:101C50003DDD8091C8259091C9258093D0208823AF
:101C600009F4E1C099278150904C880F991F880F83
:101C7000991F20911B2030911C20820F931F80936D
:101C8000CD209093CE2010E0E091CD20F091CE2099
:101C90000190F081E02D8481181708F0C4C060E045
:101CA000812F9BDC882309F44FC01F5FEDCF81306B
:101CB000F1F48091C7258B3009F046C08091CC2586
:101CC0009091CD25892B09F03FC08091D0208823A9
:101CD00009F43AC01091CA256091C825812F698303
:101CE000AFDC6981882381F1812F77DC2BC08230C2
:101CF00059F58091C725813019F0833089F024C0CF
:101D00008091CC259091CD25892BF1F48091C82527
:101D10009091C925892BC1F48091CA25A3D412C002
:101D20008091CC259091CD25892B71F48091C82587
:101D30009091C925892B41F48091CA2538D580918D
:101D4000CA256ED581116FC08091C6258F718130F3
:101D5000B9F58091D020882399F1E090CA25F090C0
:101D6000CB250091CD201091CE20D801ED91FC9192
:101D70008481E81628F560E08E2DDCDB882301F1F4
:101D8000F701FF27EE0FFF1FD80112968D919C914E
:101D90001397E80FF91F00811181D8011696ED9174
:101DA000FC9117970995682F8E2DC4DB882341F08D
:101DB000D8011496ED91FC9115970995811133C0C6
:101DC0008091C6258F71823081F58091D020882343
:101DD00061F1F12CE091CD20F091CE20A081B18174
:101DE00014968C91F81608F592818381E92FF82FCB
:101DF000EF0DF11DEF0DF11D00811181D801169637
:101E0000ED91FC9117970995682F8F2D93DB88230F
:101E100061F0D8011496ED91FC9115970995811107
:101E200002C0F394D7CF81E001C080E00F90DF9132
:101E3000CF911F910F91FF90EF9008951BBEFC0171
:101E400028ED24BF608308958091CF0187FDFCCFEA
:101E500008951F93CF93DF93C0ECD1E01A858A8752
:101E600061E08BEC91E0EADF1A87DF91CF911F915F
:101E70000895CF92DF92EF92FF920F931F93CF932B
:101E8000DF9300D0CDB7DEB78C017B0149835A8345
:101E9000DBDF8CECC82EDD24D394F60190819860B2
:101EA0009083B801705F49815A81C70180D6F601DD
:101EB0008081877F80830F900F90DF91CF911F915A
:101EC0000F91FF90EF90DF90CF900895CF93DF9325
:101ED00000D0CDB7DEB76A838983B6DFACECB1E062
:101EE0009C9198609C938981E82FF0E0F05F6A8173
:101EF00060838C91877F8C930F900F90DF91CF91AF
:101F000008950F931F93CF938C019EDFC0E0F801DB
:101F100061918F018C2FDADFCF5FC032C1F7CF9193
:101F20001F910F910895CF93DF931F92CDB7DEB726
:101F300089838ADF898120E2829FC0011124E0EC3D
:101F4000F1E012829183808385E30F90DF91CF913E
:101F500080CF4091CA01E62FF72F8093CA01849168
:101F60004093CA010895E82FF0E0EA50F24D8081D5
:101F70008F3F09F4FFCF9FB7F89480818F5F8083F4
:101F80009FBF0895E82FF0E0EA50F24D8081811163
:101F900001C0FFCF9FB7F8948081815080839FBF9D
:101FA0000895CF93C82F80919823C11105C088232D
:101FB00039F081E0E7DF04C0811102C081E0D3DFA6
:101FC000C0939823CF910895282F2F70082E000CCE
:101FD000990B392F331F3327331F832F90E0820F44
:101FE000911D820F911D23E0880F991F2A95E1F71B
:101FF0008C5D9C4D08950F93E8ECF4E080818F7D1B
:10200000808380818F7D8083ECE2F3E202E00593A0
:1020100010922E2310922F2300E2069300E40693E1
:10202000E4E2F3E200E2069300E40693E6ECF5E274
:102030001486158616861786128613861092072335
:102040000F9108950F9385E080930723EDE2F3E26B
:1020500004E00593E5E2F3E204E005930F910895AF
:102060000F9383E08093072310922E2310922F2347
:10207000ECE2F3E202E006930F910895E091D2259D
:10208000F091D325309709F009940895282F2F70E7
:10209000082E000C990B392F331F3327331F832F42
:1020A00090E0820F911D820F911D029749E0489F99
:1020B0009001499F300D1124C901895A9D4D089501
:1020C0008F929F92AF92BF92DF92EF92FF920F9307
:1020D0001F93CF93DF93D82ED9DFEC018D2D74DFC2
:1020E0007C01DC011196EC91E770E150E73040F49F
:1020F000F0E0EE0FFF1FE455FF4D0081118102C09B
:1021000008E010E0ED81FE812B813C814881D70100
:10211000D7FE48C016968D919C9117978E0F9F1FE2
:102120008D839E838217930761F1281B390B21153C
:10213000B4E03B0738F02FEF33E0C901B8010AD50E
:10214000281B390B41FF0AC0C901B80103D5AC01F6
:1021500091E0452B09F090E0892F01C080E0988143
:1021600080FB91F99883F7011682178222833383CB
:1021700029813A818D819E81820F931F848395836B
:102180000EC041FF71C04D7F4883D70116961D9246
:102190001C92179712961D921C921397F70102E05A
:1021A00006937BC01296AD90BC90139742FF10C06F
:1021B00089809A80C901B801CDD4B0E4DB9EB0011A
:1021C000112469567F4DAC01C4018E0F9F1FEFD4BF
:1021D0008D819E818A0D9B1D8D839E832B813C81E9
:1021E0002817390710F42D833E83F70186819781E4
:1021F000A816B906C9F58D819E8182179307A1F1B2
:10220000281B390B2115F4E03F0710F02FEF33E0C6
:10221000C901B8019FD4281B390BD70112961D9212
:102220001C9213972017310778F488818460888383
:10223000B0E4DB9EC001112489569F4DF7018483D1
:10224000958306831783AACF49815A818D819E8108
:10225000840F951FD70114968D939C93159716960E
:102260002D933C9317979ACF888180FF16C08E7F5D
:102270008883EF81F885309781F06D817E814D2DC7
:1022800080E0DF91CF911F910F91FF90EF90DF9051
:10229000BF90AF909F908F900994DF91CF911F9145
:1022A0000F91FF90EF90DF90BF90AF909F908F9035
:1022B00008950F93CF93DF9380910723833029F400
:1022C000DDDEDF91CF910F9196CE209103233091E7
:1022D0000423C091D025D091D125C21BD30B61F529
:1022E0008091052390910623820F931F80930523ED
:1022F000909306232091CC253091CD2528173907BE
:1023000021F08091D620882331F084E08093072348
:10231000E4E2F3E236C0E091D425F091D525309780
:1023200099F00995882381F01092032310920423D9
:10233000C091D025D091D125C034D10528F010927C
:10234000D620C0E4D0E003C081E08093D620C093C3
:102350002E23D0932F238091032390910423209147
:10236000CE253091CF25280F391F2093302330936D
:102370003123C80FD91FC0930323D0930423ECE269
:10238000F3E202E00693DF91CF910F9108950F934E
:10239000CF93DF931F92CDB7DEB78091CC0480FF3F
:1023A00065C021E02093CC0484E293E2FC0100E8C4
:1023B0000693ECE2F3E200E806932093CA04FC01E2
:1023C00000E1069380910723882329F0835082300F
:1023D00008F454DE10DE809126239091272308977D
:1023E00009F046C088E0E3ECF2E2A6ECB5E2019029
:1023F0000D928A95E1F78091C80480628093C804A9
:102400008091C80480628093C804A1D9811102C060
:1024100019DE2EC09091C62597FF0EC0109205239D
:1024200010920623109203231092042392E09093BB
:10243000072389833EDF08C02091CC253091CD252C
:10244000232B21F489830CDE898113C0109205238C
:1024500010920623109203231092042391E090938C
:102460000723E4E2F3E202E0069303C080E001C048
:1024700081E00F90DF91CF910F910895CF93CFB767
:10248000F89481E08EDDEAECF4E080E4808380E281
:102490008083E1ECF4E0808181608083A9ECB4E08A
:1024A0008C9182608C93E8ECF4E08081806480837E
:1024B0008C9181608C93808180688083CFBFCF9125
:1024C0000895CF931092600080E30E94460A8091A5
:1024D000C00480648093C00481E080936000CFB723
:1024E000F89480E090E0FC0123E0EE0FFF1F2A95B6
:1024F000E1F7E85FFC4D158E01968E30910599F756
:1025000080E090E039E0389FF001399FF00D112410
:10251000E95AFD4D20812E7F208301968C30910554
:1025200091F76AE170E082E014DD8F3F09F48FE1FA
:102530008093FA046BE170E082E00BDD8F3F09F4D9
:102540008FE18093FB048091C00486608093C00477
:102550008091C00480688093C0048091C004806131
:102560008093C00484E293E28093C6049093C704EE
:102570008091C00480628093C0048FEF8093C50473
:102580008091C80482608093C8041092982385E0EB
:10259000EADC74DFCFBFCF9108958093C304089520
:1025A0008091C3040895E6ECF5E280879187628705
:1025B000738708950F931F93CF93DF931F92CDB727
:1025C000DEB78A01698300DDFC018181807C69813D
:1025D00081113AC06370613019F020F080E803C0C7
:1025E00080EC01C080E400381105E9F058F40032B5
:1025F0001105A9F000341105A1F000311105C9F44D
:1026000091E018C0011592E0190779F00F3F93E0AF
:10261000190769F00115114061F495E00BC092E0D3
:1026200009C093E007C094E005C096E003C097E0BE
:1026300001C090E0118226E02083982B9183818154
:102640008062818381E001C080E00F90DF91CF91B3
:102650001F910F910895B8DCFC01818182FB8827CE
:1026600080F90895CF93C82FAFDCFC01818182FFF0
:102670000FC091819B7F91838C2F08DDFC0190819D
:1026800090FF06C09E7F90830780F085E02D09951E
:1026900081E0CF9108958F929F92AF92BF92DF9287
:1026A000EF92FF920F931F93CF93DF931F92CDB7BB
:1026B000DEB7D82E5A0179016983E8DC4C018D2DF3
:1026C00083DC9C01DC0111968C911197807C6981DF
:1026D000882309F45EC011968C911197807C803C10
:1026E00021F011968C9182FD54C09FB7F894F401AB
:1026F000808180FF02C09FBF4CC0816080839FBFEC
:10270000F401A182B282E382F482158216820783E9
:10271000108791E0611104C0E114F10409F090E028
:10272000D4018C9190FB81F98B7F8C93D7FE04C0F0
:10273000F9011682178229C0D90111968C9111973F
:10274000807C803CC9F41196EC91E770E150E73051
:1027500040F4F0E0EE0FFF1FE455FF4D6081718102
:1027600002C068E070E0C701F5D1892B29F0F401BF
:1027700080818E7F80830DC0D90112961D921C929C
:10278000139716961D921C9217978D2D99DC81E058
:1027900001C080E00F90DF91CF911F910F91FF90CA
:1027A000EF90DF90BF90AF909F908F900895EF9241
:1027B000FF920F93CF93C82F07DC7C018C2F66DC30
:1027C000DC01F70102E005939C9190FF1BC09E7F06
:1027D0009C931796ED91FC911897309799F0D7013B
:1027E000C7FF05C016966D917C91179704C012968D
:1027F0006D917C9113974C2F81E0CF910F91FF90B9
:10280000EF900994CF910F91FF90EF900895CF939F
:10281000C82FCDDF8C2FD8DBFC011182CF9108951A
:102820000F93CF93C82FD0DBFC01918194609183EB
:1028300001E006938C2FBBDF81E0CF910F910895CB
:102840001F920F920FB60F9211240F932F933F9365
:102850004F935F936F937F938F939F93AF93BF93A8
:10286000CF93EF93FF938091CB0487FF08C080E85C
:102870008093CA040E94820B0E94230486C0809128
:10288000CB0482FF18C084E08093CA0480912C237B
:1028900086FF7BC08091CC0481FD77C078DD8111FB
:1028A00074C080910723813011F4DADB6EC084306C
:1028B00009F06BC021C08091CB0481FF26C082E06B
:1028C0008093CA048091242386FF5FC08091CC044A
:1028D00081FD5BC05CDD811158C08091072382308F
:1028E00041F484E080930723E4E2F3E202E00693FC
:1028F0004CC0833009F049C0EDE2F3E204E00593F7
:10290000E5E2F3E204E0059340C08091CB0484FF4C
:1029100025C080E18093CA04C1E08C2F48DF8C2F52
:10292000806845DFCF5FC630C1F70E94660B10920A
:10293000C30410922523C093242383E4809325238A
:1029400010922D23C0932C2380932D2383EC92E2AD
:1029500080932823909329234EDB17C08091CB04CA
:1029600086FF08C080E48093CA0480E01ADB0E94DE
:1029700021040BC08091CB0485FF07C080E28093C7
:10298000CA0481E00EDB0E942204FF91EF91CF91F7
:10299000BF91AF919F918F917F916F915F914F9177
:1029A0003F912F910F910F900FBE0F901F90189590
:1029B0001F920F920FB60F9211240F931F932F9314
:1029C0003F934F935F936F937F938F939F93AF93B7
:1029D000BF93CF93DF93EF93FF938091CC0481FF5C
:1029E0001AC082E08093CC048091C5048195880F41
:1029F000E4E2F3E2E81BF109208131812452334201
:102A000083E0369527958A95E1F7822F869520FDFC
:102A100006C0C0E005C0BBDC882319F386C0C0E84F
:102A2000C80F8C2FD1DAFC01208125FF7EC000E287
:102A30000693C11174C080910723843019F41EDB02
:102A4000DADA73C000912623109127238091D025D4
:102A50009091D125C0910323D09104239E01200F92
:102A6000311F8217930718F48C010C1B1D0B8091EA
:102A7000CE259091CF25A80163EC72E28C0F9D1FAB
:102A800096D0C00FD11FC0930323D09304230034EA
:102A9000110569F480910523909106238C0F9D1FE9
:102AA0002091CC253091CD258217930788F0C093D3
:102AB000D025D093D125E091D425F091D52530971C
:102AC00029F00995811102C0BDDA2FC0C9DA2DC0E5
:102AD0008091D0259091D1258C179D07D9F4E09154
:102AE000D425F091D525309779F30995882361F3A2
:102AF0002091052330910623809103239091042394
:102B0000820F931F80930523909306231092032333
:102B100010920423E4E2F3E202E0069306C0C03818
:102B200011F4C7DB02C08C2FCBDAFF91EF91DF915C
:102B3000CF91BF91AF919F918F917F916F915F9155
:102B40004F913F912F911F910F910F900FBE0F90BA
:102B50001F901895AA1BBB1B51E107C0AA1FBB1FE2
:102B6000A617B70710F0A61BB70B881F991F5A9519
:102B7000A9F780959095BC01CD01089597FB072E8C
:102B800016F4009406D077FD08D0E4DF07FC05D0EA
:102B90003EF4909581959F4F0895709561957F4F74
:102BA0000895EE0FFF1F0590F491E02D0994FB01AD
:102BB000DC0102C001900D9241505040D8F70895B9
:102BC000FB01DC0101900D920020E1F70895F894DB
:022BD000FFCF35
:102BD20040000CE02E0AFFFFFFFF55800080006FCF
:102BE2000A690A790A660A000064201F2000002888
:102BF2002023200F2000000009023C000101008078
:102C0200FA0904000006FFFFFF00070581018000AA
:102C12000107058201800001070583018000010789
:102C220005840180000107058501800001070586F2
:102C3200018000011201000200000040EB0394BA7F
:102C42000002010200010000000300000000000079
:102C5200000000000000000000004C61627261642C
:102C62006F72004573706F54656B000004030904B2
:102C72006465627567313233000103001000200081
:0A2C82004000800000010002FF0383
:00000001FF
