:1000000020C100003AC1000038C1000036C1000024
:1000100034C1000032C100000C94560A0C94650AE9
:100020002CC100002AC1000028C1000026C1000028
:1000300024C1000022C1000020C100001EC1000038
:100040001CC100001AC1000018C1000016C1000048
:1000500014C1000012C1000010C100000EC1000058
:100060000C94410B0C944C0B08C1000006C100001D
:1000700004C1000002C1000000C10000FEC0000079
:10008000FCC00000FAC00000F8C00000F6C000008C
:10009000F4C00000F2C00000F0C00000EEC000009C
:1000A000ECC00000EAC00000E8C00000E6C00000AC
:1000B000E4C00000E2C00000E0C00000DEC00000BC
:1000C000DCC00000DAC00000D8C00000D6C00000CC
:1000D000D4C00000D2C00000D0C00000CEC00000DC
:1000E000CCC00000CAC00000C8C00000C6C00000EC
:1000F000C4C00000C2C00000C0C00000BEC00000FC
:10010000BCC00000BAC00000B8C00000B6C000000B
:10011000B4C00000B2C00000B0C00000AAC400001B
:10012000ACC00000AAC00000A8C00000A6C000002B
:10013000A4C00000A2C00000A0C000009EC000003B
:100140009CC000009AC0000098C000000C94B60A41
:1001500094C0000092C0000090C000008EC000005B
:100160008CC000008AC0000088C0000086C000006B
:1001700084C0000082C0000080C000007EC000007B
:100180007CC000007AC0000078C0000076C000008B
:1001900074C0000072C0000070C000006EC000009B
:1001A0006CC000006AC0000068C0000066C00000AB
:1001B00064C0000062C0000060C000005EC00000BB
:1001C0005CC000005AC0000058C0000056C00000CB
:1001D00054C0000052C0000050C000004EC00000DB
:1001E0004CC000004AC0000048C0000046C00000EB
:1001F00044C000000C945C150C94141616041804EA
:100200001A041C041E04200422042404180D3E0DAC
:10021000650DAD0DB60DBB0D0E0E130E320E390E63
:10022000410E450E450E450E450E450E450E450E3A
:100230008A0DC70DD10DDB0DE90DEB0DED0DF70DA1
:10024000010E11241FBECFEFCDBFDFE2DEBF10E2F3
:10025000A0E0B0E2EAE4FEE202C005900D92AA3B03
:10026000B107D9F72DE2AAEBB0E201C01D92AC3F75
:10027000B207E1F791D20C942317C2CE84E08093A9
:1002800056008CE1BED3809363008BEB80936600B5
:1002900080E88093650081E08093600088ED84BFF2
:1002A0001092410083E08093500080915100833090
:1002B000E1F78091500081608093500088E1809345
:1002C00055008091510080FFFCCF809150008061EB
:1002D000809350008091510084FFFCCF88ED84BF53
:1002E00084E0809340000895E0E7F0E085818E7F10
:1002F0008583E0E0FAE08FEB9DE586A397A380EE8F
:100300009EE280A391A382E0808308958091200AD9
:100310009091210A813E2EE2920718F020919E23AF
:1003200006C0803E2EE2920721F020919B2320936D
:100330006A0020910520222321F080910520815020
:1003400033C0885F9A42813D974080F11092BA2075
:100350008091BB209091BC20A091BD20B091BE2087
:100360000196A11DB11D8093BB209093BC20A0934A
:10037000BD20B093BE208091BB209091BC20A09165
:10038000BD20B091BE20892F9A2FAB2FBB27809321
:10039000BE238091BB209091BC20A091BD20B09144
:1003A000BE208093BD2386E08093052080910720A6
:1003B000909108200196B1F480910A208F3F91F02E
:1003C00080910620811106C0809106208150809383
:1003D00006200895809114019091150180930720C3
:1003E000909308200895009709F45EC00CF457C05C
:1003F00040E020916B0030E020939C2330939D23BC
:1004000020919C2330919D233695322F22273795BA
:10041000279520939C2330939D2350916A0020912F
:100420009C2330919D23250F311D20939C233093D5
:100430009D23000020919C2330919D23281739078C
:1004400028F410929C2310929D23089520919C23C0
:1004500030919D23280F391F2115304238F08FEF3E
:100460009FE180939C2390939D23089520919C234A
:1004700030919D23442329F0A901481B590BCA013F
:1004800002C0820F931F80939C2390939D238091A1
:100490009C2390919D238F7780936A000895919576
:1004A0008195910941E0A5CF0895CF93DF93C09145
:1004B000200AD091210A80910320909104209E016E
:1004C000281B390B20939F233093A0238091BA20BF
:1004D00081114BC080919F239091A0238E3C9F4F10
:1004E000D4F480919F239091A0238B369F4F9CF052
:1004F00080910220882321F080910220815008C041
:1005000080916A0080939E2381E08093BA208CE0E2
:10051000809302202AC08CE08093022080919F2348
:100520009091A0238A369F4F1CF08FEF9FEF02C05F
:1005300081E090E08093992390939A2380919F2368
:100540009091A0232091992330919A2360E370E049
:100550000E94FA16261B370B2093992330939A2377
:100560008091992390919A233EDF8091BA20813027
:1005700029F580919F239091A023C39794F08091B7
:100580000220882331F08091022081508093022044
:1005900015C080916A0080939B2383E08093BA20EA
:1005A0000DC080919F239091A023873991051CF461
:1005B00081E090E002C08FEF9FEF15DFC093032032
:1005C000D0930420DF91CF9108958617970779F093
:1005D0006817790728F49C01261B370BB90109C05D
:1005E0008617970718F4681B790B03C0089560E01D
:1005F00070E0CB010895CF93DF938091002090911C
:100600000120892B51F080910020909101200197C9
:10061000809300209093012043C080E490E0809379
:10062000002090930120809107209091082001964E
:10063000B9F1809114019091150120910A20263082
:1006400018F467E771E002C06EEE72E00E94E616F1
:10065000EC0180910720909108208C179D0758F499
:100660006091072070910820CE01AFDF029718F04B
:1006700080EC9DE511C08091072090910820C8175B
:10068000D90770F46091072070910820CE019DDF9A
:10069000029730F08FEB9DE58093360A9093370AEE
:1006A000DF91CF910895AC01460F571F861B970B22
:1006B0002091200A3091210A24173507C8F720918C
:1006C000200A3091210A8217930790F70895E0E8F5
:1006D000F6E08FE0808385E0848308951F93CF93B5
:1006E000DF93C0E4D0E0198180E4898340E250E0E8
:1006F00064ED7DE280E290E00E94A8101983DF9112
:10070000CF911F9108951F93CF93DF93C0E4D0E062
:10071000198180E4898387ED97E20E94DE1081E0F1
:100720000E94F0101983DF91CF911F9108950895D1
:100730000F931F93842F50E0415851099DE7949FD8
:100740009001959F300D112490910A20953048F426
:10075000843810F029583E4F9091C42067E771E02B
:1007600004C09091C4206EEE72E0969FA001979F06
:10077000500D1124420F531F4850584D08E913E003
:100780002DE730E060E00E9499141F910F910895C9
:100790001CBEEEEFF0E40994A1DF8091D42D8823F4
:1007A00069F080E2E4EDFDE2A7EDB7E201900D9281
:1007B0008A95E1F71092D727A6DFEADF87E08093DA
:1007C000A20078945BDDB3DF0E94A70C65D188D1CD
:1007D00060E080E01FD10BD18CE0FFD085D629D717
:1007E00042D775DF60EA70E28AEA93E20E941C1742
:1007F00000000000000000000000000000000000F9
:100800000000000000000000000000008091BF20F8
:10081000882371F3E091D6258E2F90E088309105E2
:10082000A0F4FC01E250FF4F0C940D1784D10DC0D1
:1008300016D20BC0D1D209C084D307C042D405C0A0
:1008400001D503C000D501C097D51092BF20D0CFED
:1008500008950895809114018093B3238091150128
:100860008093B423809124018093B5238091250146
:100870008093B6238091200A8093BF238091210A20
:100880008093C0238091140190911501863491408A
:1008900080F08091140190911501893A914048F4BB
:1008A00080911401909115018093F42D9093F52D72
:1008B00000008091C220882339F016DD1092C220FA
:1008C00081E08093C12008958091C120882341F068
:1008D0008091BA20833019F419DD8DDE01C0E5DD89
:1008E0008091C020882351F08091140190911501CE
:1008F0008093F42D9093F52D1092C02080910A20C2
:100900002091140130911501853028F481E02737BA
:10091000314030F004C081E02E3E324008F080E0EB
:100920008093C42008950F931F9381E08093C72084
:100930008093C22008E913E02DE730E048EF57E24A
:1009400060E081E80E9499142DE730E045E758E225
:1009500060E082E80E9499142DE730E042EF58E20F
:1009600060E083E80E9499142DE730E04FE659E2F9
:1009700060E084E80E9499142DE730E04CEE59E2E3
:1009800060E085E80E9499142DE730E049E65AE2DC
:1009900060E086E80E94991481E01F910F9108950C
:1009A0001092C720089581E0089581E00895109283
:1009B0002002982F9C7193689093200287FF03C0B8
:1009C00080E192E002C080E090E0892B80932102D8
:1009D00010922202109226020895E0E0F2E010AA9E
:1009E000836880AB80E181AB12AA16AA0895E0E08B
:1009F000F2E010A683E880A78FE281A712A616A6D0
:100A00000895AAECB1E092E09C93E82FF0E0849185
:100A10001C920895909171009D7F909371001092A7
:100A20000002623011F09CE101C09EE1909301024E
:100A300090E490930202811102C080E401C080EC36
:100A400080930302613011F084E001C083E0809361
:100A5000040280E2D6DF80930C0281E2D2DF809331
:100A60000D02109218021092190281E08093000288
:100A7000BECF1F920F920FB60F9211248F930000DA
:100A800000000000000081E0809323028F910F900E
:100A90000FBE0F901F901895CF93DF93E0E7F0E023
:100AA00082818B7F8283C0E2D3E08DE0888380E403
:100AB000898389E08A8383E3A4DF888782E3A1DFD7
:100AC000898787E39EDF8A8786E39BDF8B87E0E267
:100AD000F6E08081836080831482DF91CF91089556
:100AE000E0E7F0E080818E7F808383E880930001DF
:100AF0000895E0E0F1E0108A80E4808B10A280A3EA
:100B000010AA80ABE0E4F1E0108280831092C6204E
:100B10001092C5201092C4201092A8231092A923ED
:100B20001092A6231092A72308958093D62581E0E2
:100B30008093BF20089510920A20DBDF8091092066
:100B4000811105C081E08093360184E003C01092DA
:100B5000360184E2809330011092310139E53093FF
:100B6000320122E02093330180910C2090910D20DE
:100B7000809334019093350187ED95E2809338019D
:100B80009093390110923A018BE380933C0193E0FA
:100B900090933D0110923E018091300180688093D6
:100BA00030011092460184E280934001109241018D
:100BB000309342019093430140910E2050910F20B9
:100BC000409344015093450146EC53E24093480161
:100BD0005093490110924A0139E330934C019093AC
:100BE0004D0110924E019091400190689093400108
:100BF0001092100190E490931001809310011092D4
:100C0000110195E99093120190E1909313014EEE3A
:100C100052E04093140150931501809318012093E2
:100C2000190110921A0188EF97E280931C019093AA
:100C30001D0110921E0168EC70E084EF91E033DD3D
:100C400088EC90E0809307209093082081E08093C7
:100C50000620809110018068809310010895CF9341
:100C6000C1E0C0930A2045DF1092300180E48093F8
:100C7000300194E0909330011092310110923201D2
:100C80008BE480933301109234011092350110925D
:100C900036012BE030E22093380130933901109275
:100CA0003A0180EA80933C0188E080933D011092F4
:100CB0003E0180913001806A8093300185E5809308
:100CC000A0088093A00880910920811105C0C093DD
:100CD00046019093400105C01092460184E2809342
:100CE00040011092410189E58093420192E0909386
:100CF000430120910C2030910D202093440130932A
:100D0000450127ED35E220934801309349011092C7
:100D10004A018BE380934C0183E080934D01109254
:100D20004E018091400180688093400184E280936D
:100D300020011092210145E9409322012BE42093E8
:100D400023012EEE32E0209324013093250150EA56
:100D50005093280158E05093290110922A0166EE21
:100D60007AE260932C0170932D0110922E018093F2
:100D70001001109211014093120140E140931301C0
:100D80002093140130931501809318019093190159
:100D900010921A0188EF97E280931C0190931D0135
:100DA00010921E0168EC70E084EF91E07CDC88EC2E
:100DB00090E0809307209093082081E080930620A4
:100DC00080912001806880932001809110018068CB
:100DD00080931001CF91089582E080930A2089DEEC
:100DE00080910920811105C081E08093360184E063
:100DF00003C01092360184E28093300110923101D9
:100E000039E53093320192E09093330140910C2008
:100E100050910D20409334015093350147ED55E238
:100E2000409338015093390110923A018BE380933B
:100E30003C0123E020933D0110923E01809130015E
:100E40008068809330011092460184E280934001D3
:100E500010924101309342012093430140910E20B2
:100E600050910F20409344015093450146EC53E2CA
:100E7000409348015093490110924A0139E330935D
:100E80004C0120934D0110924E01209140012068A9
:100E9000209340011092100120E4209310018093D0
:100EA00010011092110155E95093120140E1409355
:100EB00013012EEE32E0209314013093150180933C
:100EC00018019093190110921A0168EF77E260936C
:100ED0001C0170931D0110921E018093200110923D
:100EE0002101509322014093230120932401309348
:100EF000250184E3809328019093290110922A010F
:100F000086EE9AE280932C0190932D0110922E018F
:100F100068EC70E084EF91E0C6DB88EC90E08093B1
:100F200007209093082081E0809306208091100193
:100F30008068809310018091200180688093200157
:100F4000089583E080930A20D4DD809109208111E7
:100F500005C081E08093460184E003C01092460101
:100F600084E2809340011092410129E520934201DF
:100F700082E08093430180910C2090910D2080931A
:100F800044019093450187ED95E280934801909349
:100F9000490110924A018BE380934C0183E08093D6
:100FA0004D0110924E019091400190689093400144
:100FB0001092360144E240933001109231012093A7
:100FC00032018093330120910E2030910F20209325
:100FD00034013093350126EC33E22093380130930D
:100FE000390110923A0199E390933C0180933D01BD
:100FF00010923E0180913001806880933001109200
:10100000200150E45093200184E08093200110924D
:101010002101109222013BE430932301109224011C
:1010200010922501109226018BE090E28093280116
:101030009093290110922A0120EA20932C0198E034
:1010400090932D0110922E0180912001806A80934F
:10105000200185E58093A0081092100150931001A3
:10106000409310011092110185E980931201309391
:1010700013014EEE52E0409314015093150120935A
:1010800018019093190110921A0188EF97E280934A
:101090001C0190931D0110921E0168EC70E084EF1A
:1010A00091E001DB88EC90E080930720909308208A
:1010B00081E0809306208091100180688093100168
:1010C0000895CF93C4E0C0930A2013DD109230013D
:1010D00080E480933001C09330011092310110926E
:1010E00032018BE480933301109234011092350168
:1010F000109236018BE090E2809338019093390191
:1011000010923A0180EA80933C0188E080933D018F
:1011100010923E0180913001806A8093300185E514
:101120008093A00880910920811106C081E08093FE
:101130004601C093400105C01092460184E28093AD
:1011400040011092410189E58093420182E0809341
:10115000430180910C2090910D2080934401909345
:10116000450187ED95E280934801909349011092E3
:101170004A018BE380934C0183E080934D011092F0
:101180004E018091400180688093400144E2409389
:1011900010011092110195E9909312018BE4809354
:1011A00013012EEE32E0209314013093150180EAF2
:1011B0008093180188E08093190110921A0168EF5A
:1011C00077E260931C0170931D0110921E01409301
:1011D000200110922101909322019AE4909323011F
:1011E000209324013093250193EC90932801809360
:1011F000290110922A0186EE9AE280932C019093A5
:101200002D0110922E0168EC70E084EF91E04BDA32
:1012100088EC90E0809307209093082081E08093F1
:101220000620809110018068809310018091200138
:10123000806880932001809110018061809310016B
:10124000CF910895FFCF86E080930A2052DC109260
:10125000360194E2909330011092310189E5809338
:10126000320183E08093330120910E2030910F20D2
:10127000209334013093350126EC33E2209338017A
:101280003093390110923A0129E320933C01809375
:101290003D0110923E0180913001806880933001C1
:1012A00080910920811107C081E08093460184E08C
:1012B0008093400104C01092460190934001109227
:1012C000410189E58093420192E09093430120918E
:1012D0000C2030910D20209344013093450127EDDF
:1012E00035E2209348013093490110924A018BE383
:1012F00080934C0183E080934D0110924E018091C8
:1013000040018068809340011092100180E4809336
:10131000100184E2809310011092110125E92093BD
:10132000120120E1209313012CED35E020931401EC
:1013300030931501809318019093190110921A01AE
:1013400088EF97E280931C0190931D0110921E017B
:1013500068EC70E084EF91E0A6D980E991E0809399
:1013600007209093082081E080930620809110014F
:10137000806880931001089587E080930A20B9DB8C
:101380001092360194E2909330011092310189E578
:101390008093320183E08093330120910E203091BD
:1013A0000F20209334013093350126EC33E2209353
:1013B00038013093390110923A0129E320933C011E
:1013C00080933D0110923E018091300180688093AE
:1013D000300180910920811107C081E0809346018E
:1013E00084E08093400104C0109246019093400134
:1013F0001092410189E58093420192E0909343016C
:1014000020910C2030910D20209344013093450110
:1014100027ED35E2209348013093490110924A01AB
:101420008BE380934C0183E080934D0110924E0139
:10143000809140018068809340011092100180E407
:101440008093100185E2809310011092110185E9CB
:101450008093120180E1809313012CED35E02093FD
:1014600014013093150184E28093180190931901BF
:1014700010921A0188EF97E280931C0190931D014E
:1014800010921E0168EC70E084EF91E00CD980E9C5
:1014900091E0809307209093082081E080930620BC
:1014A0008091100180688093100108951F920F921F
:1014B0000FB60F9211248F9381E0809303018F91D7
:1014C0000F900FBE0F901F9018951F920F920FB69E
:1014D0000F9211248F9382E0809303018F910F90DC
:1014E0000FBE0F901F901895E0E7F0E083818C7F8E
:1014F000838384818C7F848380818D7F8083E0E8F7
:10150000F1E080EC8283128688EC81831186A0E072
:10151000B8E034E03C9323E011962C931197149695
:101520001C92149785ED91E096968D939C939797D6
:1015300016961C921697E0E4F8E03083218314821B
:1015400086A397A31682E0E6F6E08081806180831F
:10155000E0E4F9E083E18183148282E08683A6A33C
:10156000B7A310A611A681E0808308951F920F9261
:101570000FB60F9211242F933F934F935F938F9346
:101580009F93CF93DF931F92CDB7DEB78FEF8093FA
:101590004C0980910A20873031F480912C02898394
:1015A00090912D0202C090912C028091C320891B42
:1015B000209168093091690982308CF02A3F3740C8
:1015C00070F4209168093091690989301CF481E038
:1015D00090E002C086E090E0820F931F18C0209137
:1015E0006809309169098F3FB4F42730310598F0CC
:1015F0002091680930916909883F1CF081E090E0F2
:1016000002C086E090E0A901481B590BCA018093F3
:101610007809909379090F90DF91CF919F918F91E5
:101620005F914F913F912F910F900FBE0F901F90A0
:101630001895E0E7F0E083818F7E8383E0E4F6E0B5
:1016400080818A6A80838FEF848388E5828BE0EAD9
:10165000F8E080E3838384EC858387E086831782C8
:1016600088E184830895E0E7F0E08381877F8383C6
:10167000E0ECF8E0118288E58093550680E68083EF
:1016800008951F920F920FB60F92112400000F9031
:101690000FBE0F901F9018951F920F920FB60F92CA
:1016A00011248F93EF93FF93E0EAF8E08081808329
:1016B000FF91EF918F910F900FBE0F901F90189593
:1016C0009FB7F894A0E5B0E016968C911697897FA5
:1016D00016968C931697E0E6F0E080E885838BEB16
:1016E000868316968C911697846016968C938081CB
:1016F000816080839FBF08959FB7F894E82FF0E042
:10170000E059FF4F60958081682360839FBF0895F3
:10171000CF93863011F0C0E001C0C8E18091510044
:1017200081FD0DC09FB7F894809150008260809336
:1017300050009FBF8091510081FFFCCFC1DF6C2F13
:10174000636084E490E0E9D460E480E0CF91D4CF9A
:101750008091C82008958091C820813009F420C963
:101760000895F0D0FC0183818093C820811101C0CD
:10177000DAC881E008959091C625892F807697FF79
:1017800007C0803491F48091C72581110EC00DC926
:10179000803459F48091C725811107C08091CC25F0
:1017A0009091CD25892B09F0FEC880E008958091A5
:1017B000C8258F770C9423149091D020911102C0EA
:1017C00080E00895E091CD20F091CE200190F0814D
:1017D000E02D94818917A0F7E093CB20F093CC20E3
:1017E000228133812E0F3F1FE217F30798F4918176
:1017F000943061F49281891309C09381691306C002
:10180000E093CB20F093CC2081E008959081E90F04
:10181000F11DEACFE093CB20F093CC20D1CFE09123
:10182000CD20F091CE200190F081E02D22813381F6
:101830002E0F3F1FFC014081E40FF11DE217F3075B
:1018400048F48181843031F0853039F08081E80FAF
:10185000F11DF4CF80E090E00895CF0108951F932B
:10186000CF93DF93182FA8DF882339F1C091CB20C5
:10187000D091CC20CE01D3DFEC01892B41F04C81FB
:101880005D816B818A81ECD78111F4CF16C0E09124
:10189000CD20F091CE2092818381E92FF82FE10FA6
:1018A000F11DE10FF11D0190F081E02D0190F0811B
:1018B000E02DDF91CF911F91099480E0DF91CF91CE
:1018C0001F910895EF92FF921F93CF93DF93C82F3C
:1018D00060E072DF811102C010E02DC0E091CD20E8
:1018E000F091CE2092818381E92FF82FEC0FF11D2A
:1018F000EC0FF11DE080F180D7011696ED91FC917F
:1019000017970995682F8C2F57DF182F882321F3FD
:10191000C091CB20D091CC20CE0181DFEC01892B6E
:1019200021F08A810E944315F7CFD7011296ED91DD
:10193000FC9113970995812FDF91CF911F91FF9013
:10194000EF9008958091CB209091CC2008950FC7FF
:10195000CF938091D020882311F0C0E008C010926E
:10196000D0201092D4201092D520CF910895E091EC
:10197000CD20F091CE200190F081E02D8481C81718
:1019800070F78C2F9FDFCF5FF2CFCF938091D02065
:101990008823F1F0C0E0E091CD20F091CE20A0812D
:1019A000B18114968C91C81798F492818381E92FA4
:1019B000F82FEC0FF11DEC0FF11D0190F081E02DDF
:1019C0000084F185E02D309709F00995CF5FE3CFD2
:1019D000CF9108950F931F93CF93DF931092D0254B
:1019E0001092D1251092D2251092D3251092D42591
:1019F0001092D5258091C62587FF07C02091CC2560
:101A00003091CD25232B09F482C38076803409F0F0
:101A10003CC1E091C7258E2F90E0FC01E05AF1090E
:101A2000E331F10508F031C1EA5FFE4F0C940D1768
:101A300081E08093C02080910720909108208093BE
:101A4000B72380910720909108209093B82380912C
:101A50009E238093B92380919B238093BA23809106
:101A60006A008093BB2380916B008093BC236091BC
:101A7000CC257091CD258AEA93E201C1109200082D
:101A80008091C8259091C925809336089093370896
:101A90008091CA258F70809300086091CC25709149
:101AA000CD2586EC93E2D5D68091CC259091CD259D
:101AB00020910E2030910F208217930709F4F2C273
:101AC00080930E2090930F2045C081E080930920E1
:101AD000109240088091C8259091C925809376087E
:101AE000909377088091CA258F7080934008609109
:101AF000CC257091CD2587ED95E2ABD68091CC2594
:101B00009091CD2520910C2030910D2082179307C4
:101B1000E9F4C8C210920920109240088091C825AB
:101B20009091C92580937608909377088091CA2573
:101B30008F70809340086091CC257091CD2587ED02
:101B400095E287D68091CC259091CD2580930C206D
:101B500090930D2080910A205EC010926809109227
:101B600069098091C8258093C3209CC28091C825B3
:101B70008093240697C2E091C825F091C925E830EA
:101B8000F10508F082C0E75EFE4F0C940D1760E08F
:101B900080E00E940A058091CA250E94D70480E057
:101BA0003AC060E080E00E940A058091CA250E9448
:101BB000D70481E030C061E081E00E940A05809195
:101BC000CA250E94D7048091CB250E94ED0482E0B3
:101BD00022C083E020C084E01EC060E080E00E945C
:101BE0000A058091CA250E94D70485E014C061E0EF
:101BF00080E00E940A058091CA250E94D70486E0F1
:101C00000AC062E080E00E940A058091CA258068CF
:101C10000E94D70487E00E94950544C28091C825A0
:101C2000809384063FC28091C8259091C925892B55
:101C300091F00E946E0380E2E4EDFDE2A7EDB7E2D1
:101C400001900D928A95E1F781E08093D7270E9459
:101C500083030E946E03E9E7F0E091E088EDF894D9
:101C600084BF90836091CC257091CD258AEA90E263
:101C700006C06091CC257091CD2589EA90E2E9D526
:101C800011C20E94930481110DC28091C625982F24
:101C9000907609F0C9C187FFFBC02091CC25309117
:101CA000CD252115310509F4BFC18F7109F09EC002
:101CB0008091C725863071F0883009F48EC081117B
:101CC000B3C12230310509F0AFC162E070E084EDAC
:101CD00090E2D5CF8091C8259091C925292F33272F
:101CE00022303105A1F060F42130310509F09CC1AA
:101CF00080911A2090911B20DC016C9170E05BC0F8
:101D00002330310589F12F30310509F18DC1E09182
:101D10001A20F0911B202189821708F085C199278C
:101D2000880F991F880F991FE0911C20F0911D20AA
:101D3000E80FF91F80819181FC016281738189D54F
:101D4000E091CE25F091CF2582E0818335C080914E
:101D50001E2090911F20009709F466C1DC011296A5
:101D60006D917C91139727C099278130910569F077
:101D700038F0029709F058C168E08AE890E208C09C
:101D800064E070E08CE990E216C067E083E990E2DD
:101D9000282FAAE7B0E2FC01819190E08D939D93FA
:101DA0008E2F821B8617C0F3660F6E5F60937820BC
:101DB00070E088E790E24DD58091CC259091CD25BB
:101DC0002091D0253091D1258217930708F06AC160
:101DD0008093D0259093D12565C12130310509F03C
:101DE00023C161E070E080ED90E249CF8130C1F520
:101DF0008091C7258A3009F017C12130310509F0DB
:101E000013C18091D020882309F40EC1C091CA2546
:101E1000D091CB250091CD201091CE20D801ED910D
:101E2000FC918481C81708F0FFC060E08C2FC4DCEF
:101E3000882309F4F9C0DD27CC0FDD1FF80182816A
:101E40009381C80FD91FE881F9810680F781E02DC1
:101E500009958093D22061E070E082ED90E20FCF8F
:101E6000823009F0E1C08091C7258111DDC02230A8
:101E7000310509F0D9C08091CA253BD590E0809307
:101E8000C9209093CA2062E070E089EC90E2F7CE1E
:101E90008F7109F07DC08091C725833009F4C4C0DB
:101EA00018F48130A1F0C0C0853019F0893039F1C3
:101EB000BBC08091CC259091CD25892B09F0B4C071
:101EC00087ED9BE08093D2259093D325EBC0809142
:101ED000CC259091CD25892B09F0A6C08091C825ED
:101EE0009091C925019709F09FC08091D4209091CD
:101EF000D5208D7F8093D4209093D520D3C080911E
:101F0000CC259091CD25892B09F08EC09FD48823B4
:101F100009F48AC02091C8253091C9253327E09162
:101F20001A20F0911B20818990E08217930708F412
:101F30007BC00EDD8091C8259091C9258093D0206B
:101F4000882309F4AFC099278150904C880F991FBE
:101F5000880F991F20911C2030911D20820F931F04
:101F60008093CD209093CE20C0E0E091CD20F091E1
:101F7000CE200190F081E02D8481C81708F092C036
:101F800060E08C2F6CDC882309F44EC0CF5FEDCF6E
:101F90008130E9F48091C7258B3009F045C08091EC
:101FA000CC259091CD25892B09F03EC08091D02081
:101FB000882309F439C0C091CA25D091C8258C2F37
:101FC00081DC882389F16D2F8C2F49DC2BC0823076
:101FD00059F58091C725813019F0833089F024C0EC
:101FE0008091CC259091CD25892BF1F48091C82545
:101FF0009091C925892BC1F48091CA2581D412C042
:102000008091CC259091CD25892B71F48091C825A4
:102010009091C925892B41F48091CA2504D58091DE
:10202000CA253AD581113EC08091C6258F71813075
:10203000D9F58091D020882309F469C0C091CA25C0
:10204000D091CB250091CD201091CE20D801ED91DB
:10205000FC918481C81708F05AC060E08C2FACDB7B
:10206000882311F1FE01FF27EE0FFF1FD801129602
:102070008D919C911397E80FF91F00811181D80170
:102080001696ED91FC9117970995682F8C2F94DB8C
:10209000882351F0D8011496ED91FC91159709957C
:1020A000882311F081E034C08091C6258F71823081
:1020B00071F58091D020882351F1C0E0E091CD20CE
:1020C000F091CE20A081B18114968C91C817F8F4BC
:1020D00092818381E92FF82FEC0FF11DEC0FF11D98
:1020E00000811181D8011696ED91FC911797099501
:1020F000682F8C2F61DB882351F0D8011496ED9165
:10210000FC91159709958111CDCFCF5FD7CF80E096
:10211000DF91CF911F910F9108951BBEFC0128ED17
:1021200024BF608308958091CF0187FDFCCF08957F
:102130001F93CF93DF93C0ECD1E01A858A8761E0CB
:102140008BEC91E0EADF1A87DF91CF911F91089520
:10215000CF92DF92EF92FF920F931F93CF93DF9373
:102160008C017B016A01DFDFCCECD1E088818860E3
:102170008883B801705FA601C70155D68881877F23
:102180008883DF91CF911F910F91FF90EF90DF90A7
:10219000CF900895CF93DF93C82FD62FC4DFACEC38
:1021A000B1E08C9188608C93EC2FF0E0F05FD083ED
:1021B0008C91877F8C93DF91CF9108950F931F931C
:1021C000CF938C01B0DFC0E0F80161918F018C2FBB
:1021D000E1DFCF5FC032C1F7CF911F910F9108951A
:1021E000CF93C82FA0DF20E2C29FC0011124E0ECF2
:1021F000F1E012829183808385E3CF9199CF409162
:10220000CA01E62FF72F8093CA0184914093CA0137
:102210000895E82FF0E0EA50F24D80818F3F09F4F5
:10222000FFCF9FB7F89480818F5F80839FBF089511
:10223000E82FF0E0EA50F24D8081811101C0FFCF1C
:102240009FB7F8948081815080839FBF0895CF937A
:10225000C82F80919823C11105C0882339F081E0EF
:10226000E7DF04C0811102C081E0D3DFC09398236F
:10227000CF910895282F2F70082E000C990B392F1D
:10228000331F3327331F832F90E0820F911D820F5E
:10229000911D23E0880F991F2A95E1F78C5D9C4DD5
:1022A00008950F93E8ECF4E080818F7D8083808136
:1022B0008F7D8083ECE2F3E202E0059310922E23FF
:1022C00010922F2300E2069300E40693E4E2F3E287
:1022D00000E2069300E40693E6ECF5E21486158628
:1022E0001686178612861386109207230F9108957B
:1022F0000F9385E080930723EDE2F3E204E005937A
:10230000E5E2F3E204E005930F9108950F9383E073
:102310008093072310922E2310922F23ECE2F3E2F6
:1023200002E006930F910895E091D225F091D32514
:10233000309709F009940895282F2F70082E000C6B
:10234000990B392F331F3327331F832F90E0820FD0
:10235000911D820F911D029749E0489F9001499F6E
:10236000300D1124C901895A9D4D0895AF92BF9235
:10237000DF92EF92FF920F931F93CF93DF93D82EAC
:10238000DBDFEC018D2D76DF7C01DC011196EC9119
:10239000E770E150E73040F4F0E0EE0FFF1FE45546
:1023A000FF4D0081118102C008E010E02D813E81C7
:1023B0008B819C814881D7FE4AC0F7016681778175
:1023C000260F371F2D833E8328173907A1F1BC0143
:1023D000621B730B9B01211574E0370738F02FEF58
:1023E00033E0C901B801F2D4281B390B41FF0AC000
:1023F000C901B801EBD4AC0191E0452B09F090E0A4
:10240000892F01C080E0988180FB91F99883D701E2
:1024100016961D921C92179712962D933C93139724
:1024200029813A818D819E81820F931F14968D930D
:102430009C93159708C041FF78C04D7F4883168252
:10244000178212821382F70102E0069385C0D7013A
:102450001296AD90BC90139742FF0FC0E981FA81AC
:10246000B801B4D4B0E4DB9EB001112469567F4DAD
:10247000AC01CF01820F931FD6D42D813E812A0D4E
:102480003B1D2D833E838B819C818217930710F423
:102490008D839E83F70126813781A216B30609F04A
:1024A00044C02D813E818217930709F43EC0AC01E0
:1024B000421B530B9A01211554E0350750F02FEFC2
:1024C00033E0C901B80182D4B901681B790BCB0193
:1024D00007C0C901B8017AD4D901A81BB90BCD0135
:1024E000F701128213828017910798F48881846023
:1024F0008883F0E4DF9EC001112489569F4DD701E7
:1025000014968D939C93159716960D931C9317977D
:102510009ACF49815A812D813E81240F351FF701C1
:1025200024833583868397838ECF888180FF14C070
:102530008E7F8883EF81F885309771F06D817E8181
:102540004D2D80E0DF91CF911F910F91FF90EF9083
:10255000DF90BF90AF900994DF91CF911F910F91C1
:10256000FF90EF90DF90BF90AF9008950F93CF93BF
:10257000DF9380910723833029F4D6DEDF91CF915A
:102580000F918FCE2091032330910423C091D02549
:10259000D091D125C21BD30B61F580910523909179
:1025A0000623820F931F8093052390930623209187
:1025B000CC253091CD258217930721F08091D6202C
:1025C000882331F084E080930723E4E2F3E236C00D
:1025D000E091D425F091D525309799F0099588237D
:1025E00081F01092032310920423C091D025D09142
:1025F000D125C034D10528F01092D620C0E4D0E017
:1026000003C081E08093D620C0932E23D0932F2344
:1026100080910323909104232091CE253091CF25E2
:10262000280F391F2093302330933123C80FD91F2F
:10263000C0930323D0930423ECE2F3E202E0069379
:10264000DF91CF910F9108950F93CF938091CC0498
:1026500080FF63C021E02093CC0484E293E2FC017C
:1026600000E80693ECE2F3E200E806932093CA0444
:10267000FC0100E1069380910723882329F0835011
:10268000823008F451DE0DDE8091262390912723BD
:10269000089709F044C088E0E3ECF2E2A6ECB5E26A
:1026A00001900D928A95E1F78091C8048062809331
:1026B000C8048091C80480628093C8048BD9C82F55
:1026C000811102C015DE2BC08091C62587FF0DC089
:1026D00010920523109206231092032310920423D4
:1026E00082E08093072342DF1BC08091CC2590912C
:1026F000CD25892B11F40ADE13C010920523109208
:102700000623109203231092042381E08093072371
:10271000E4E2F3E202E0069303C0C0E001C0C1E0DE
:102720008C2FCF910F910895CF93CFB7F89481E07C
:102730008EDDEAECF4E080E4808380E28083E1ECEB
:10274000F4E0808181608083A9ECB4E08C918260A8
:102750008C93E8ECF4E08081806480838C918160CC
:102760008C93808180688083CFBFCF910895CF9371
:102770001092600080E30E94880B8091C004806406
:102780008093C00481E080936000CFB7F89480E02C
:1027900090E0FC0123E0EE0FFF1F2A95E1F7E85FD0
:1027A000FC4D158E01968E30910599F780E090E0F2
:1027B00039E0389FF001399FF00D1124E95AFD4DA1
:1027C00020812E7F208301968C30910591F76AE15C
:1027D00070E082E014DD8F3F09F48FE18093FA040A
:1027E0006BE170E082E00BDD8F3F09F48FE18093B5
:1027F000FB048091C00486608093C0048091C00473
:1028000080688093C0048091C00480618093C0047C
:1028100084E293E28093C6049093C7048091C0043D
:1028200080628093C0048FEF8093C5048091C804B8
:1028300082608093C8041092982385E0EADC74DFFC
:10284000CFBFCF9108958093C30408958091C304AE
:102850000895E6ECF5E28087918762877387089593
:102860001F93CF93DF93162FEA0104DDFC018181D2
:10287000807CD1F5612F6370613019F020F080E821
:1028800003C080EC01C080E4C038D105E1F050F411
:10289000C032D105A1F0C034D10599F06097C9F4D8
:1028A00091E018C0C11592E0D90779F0CF3F93E0CD
:1028B000D90769F0C115D14061F495E00BC092E0F1
:1028C00009C093E007C094E005C096E003C097E01C
:1028D00001C090E0118226E02083982B91838181B2
:1028E0008062818381E001C080E0DF91CF911F9100
:1028F0000895C0DCFC01818182FB882780F908955E
:10290000CF93C82FB7DCFC01818182FF0FC081818A
:102910008B7F81838C2F10DDFC01908190FF06C09E
:102920009E7F90830780F085E02D099581E0CF910F
:102930000895AF92BF92CF92DF92EF92FF920F93E2
:102940001F93CF93DF93D82EC62E5A017901F4DC62
:10295000EC018D2D8FDC9C01DC0111968C9111977F
:10296000807C09F454C011968C911197807C803C36
:1029700021F011968C9182FD4AC09FB7F89488810E
:1029800080FF02C09FBF43C0816088839FBFA98230
:10299000BA82EB82FC821D821E820F83188791E02F
:1029A000C11004C0E114F10409F090E0888190FBAB
:1029B00081F98B7F8883D7FE02C0F90122C0D9013B
:1029C00011968C911197807C803CC1F41196EC910A
:1029D000E770E150E73040F4F0E0EE0FFF1FE45500
:1029E000FF4D6081718102C068E070E0C701EED1E7
:1029F000892B21F088818E7F888309C0F90112829A
:102A00001382168217828D2DB1DC81E001C080E037
:102A1000DF91CF911F910F91FF90EF90DF90CF90BA
:102A2000BF90AF900895EF92FF920F93CF93C82F6E
:102A300021DC7C018C2F80DCDC01F70102E00593B6
:102A40009C9190FF1BC09E7F9C931796ED91FC91EB
:102A50001897309799F0D701C7FF05C016966D916A
:102A60007C91179704C012966D917C9113974C2F0F
:102A700081E0CF910F91FF90EF900994CF910F914A
:102A8000FF90EF900895CF93C82FCDDF8C2FF2DB0E
:102A9000FC011182CF9108950F93CF93C82FEADBE9
:102AA000FC0181818460818301E006938C2FBBDF70
:102AB00081E0CF910F9108951F920F920FB60F9260
:102AC00011240F932F933F934F935F936F937F93B3
:102AD0008F939F93AF93BF93CF93EF93FF93809187
:102AE000CB0487FF08C080E88093CA040E94C50C0D
:102AF0000E942A0486C08091CB0482FF18C084E023
:102B00008093CA0480912C2386FF7BC08091CC04E3
:102B100081FD77C099DD811174C0809107238130D8
:102B200011F4F4DB6EC0843009F06BC021C08091D9
:102B3000CB0481FF26C082E08093CA0480912423C5
:102B400086FF5FC08091CC0481FD5BC07DDD81117B
:102B500058C080910723823041F484E0809307239A
:102B6000E4E2F3E202E006934CC0833009F049C08E
:102B7000EDE2F3E204E00593E5E2F3E204E005931D
:102B800040C08091CB0484FF25C080E18093CA04BB
:102B9000C1E08C2F48DF8C2F806845DFCF5FC630C7
:102BA000C1F70E94A80C1092C30410922523C09371
:102BB000242383E48093252310922D23C0932C2378
:102BC00080932D2383EC92E28093282390932923F2
:102BD00068DB17C08091CB0486FF08C080E4809337
:102BE000CA0480E034DB0E9428040BC08091CB042F
:102BF00085FF07C080E28093CA0481E028DB0E9441
:102C00002904FF91EF91CF91BF91AF919F918F9147
:102C10007F916F915F914F913F912F910F910F9005
:102C20000FBE0F901F9018951F920F920FB60F9224
:102C300011240F931F932F933F934F935F936F93A1
:102C40007F938F939F93AF93BF93CF93DF93EF9334
:102C5000FF938091CC0481FF1AC082E08093CC0462
:102C60008091C5048195880FE4E2F3E2E81BF10945
:102C7000208131812452334283E0369527958A950D
:102C8000E1F7822F869520FD06C0C0E005C0DCDCA0
:102C9000882319F386C0C0E8C80F8C2FEBDAFC013B
:102CA000208125FF7EC000E20693C11174C080918F
:102CB0000723843019F438DBF4DA73C0009126233B
:102CC000109127238091D0259091D125C091032385
:102CD000D091042398012C0F3D1F8217930718F4FD
:102CE0008C010C1B1D0B8091CE259091CF25A80146
:102CF00063EC72E28C0F9D1F96D0C00FD11FC09362
:102D00000323D09304230034110569F48091052333
:102D1000909106238C0F9D1F2091CC253091CD25BD
:102D20008217930788F0C093D025D093D125E091E6
:102D3000D425F091D525309729F00995811102C04D
:102D4000D7DA2FC0E3DA2DC08091D0259091D1251C
:102D5000C817D907D9F4E091D425F091D52530973B
:102D600079F30995882361F3209105233091062397
:102D70008091032390910423820F931F8093052356
:102D8000909306231092032310920423E4E2F3E2CB
:102D900002E0069306C0C03811F4E8DB02C08C2FB5
:102DA000E5DAFF91EF91DF91CF91BF91AF919F91C4
:102DB0008F917F916F915F914F913F912F911F91D3
:102DC0000F910F900FBE0F901F901895AA1BBB1B61
:102DD00051E107C0AA1FBB1FA617B70710F0A61B1B
:102DE000B70B881F991F5A95A9F780959095BC013C
:102DF000CD01089597FB072E16F4009406D077FDB9
:102E000008D0E4DF07FC05D03EF4909581959F4FF4
:102E10000895709561957F4F0895EE0FFF1F0590FF
:102E2000F491E02D0994FB01DC0102C001900D92A8
:102E300041505040D8F70895FB01DC0101900D92FC
:0A2E40000020E1F70895F894FFCF99
:102E4A0040000CE02E0AFFFFFF01FF5580008000C2
:102E5A00B10BAB0BBB0BA80B0000642020200000B9
:102E6A00282024201020000009023C0001010080D3
:102E7A00FA0904000006FFFFFF0007058101800030
:102E8A00010705820180000107058301800001070F
:102E9A000584018000010705850180000107058678
:102EAA00018000011201000200000040EB0394BA05
:102EBA0000020102000100000003000000000000FF
:102ECA00000000000000000000004C6162726164B2
:102EDA006F72004573706F54656B00000403090438
:102EEA006465627567313233000107001000200003
:0A2EFA004000800000010002FF0309
:00000001FF
