:100000001FC1000039C1000037C1000035C1000028
:1000100033C1000031C100000C94E5080C941509AF
:100020002BC1000029C1000027C1000025C100002C
:1000300023C1000021C100001FC100001DC100003C
:100040001BC1000019C1000017C1000015C100004C
:1000500013C1000011C100000FC100000DC100005C
:100060000C94120A0C941D0A07C1000005C100007F
:1000700003C1000001C10000FFC00000FDC000007E
:10008000FBC00000F9C00000F7C00000F5C0000090
:10009000F3C00000F1C00000EFC00000EDC00000A0
:1000A000EBC00000E9C00000E7C00000E5C00000B0
:1000B000E3C00000E1C00000DFC00000DDC00000C0
:1000C000DBC00000D9C00000D7C00000D5C00000D0
:1000D000D3C00000D1C00000CFC00000CDC00000E0
:1000E000CBC00000C9C00000C7C00000C5C00000F0
:1000F000C3C00000C1C00000BFC00000BDC0000000
:10010000BBC00000B9C00000B7C00000B5C000000F
:10011000B3C00000B1C00000AFC0000074C4000054
:10012000ABC00000A9C00000A7C00000A5C000002F
:10013000A3C00000A1C000009FC000009DC000003F
:100140009BC0000099C0000097C000000C94870974
:1001500093C0000091C000008FC000008DC000005F
:100160008BC0000089C0000087C0000085C000006F
:1001700083C0000081C000007FC000007DC000007F
:100180007BC0000079C0000077C0000075C000008F
:1001900073C0000071C000006FC000006DC000009F
:1001A0006BC0000069C0000067C0000065C00000AF
:1001B00063C0000061C000005FC000005DC00000BF
:1001C0005BC0000059C0000057C0000055C00000CF
:1001D00053C0000051C000004FC000004DC00000DF
:1001E0004BC0000049C0000047C0000045C00000EF
:1001F00043C000000C94ED130C949B14FC03FE030D
:10020000000402040404060408040A041C041E0476
:10021000200422042404290426042804EA0B100CD8
:10022000370C600C690C6E0CB50CBA0CD90CE00CD8
:100230007A0C820C8A0C950C970C990CA10CAA0CC8
:1002400011241FBECFEFCDBFDFE2DEBF10E2A0E082
:10025000B0E2E8E5FBE202C005900D92AA39B107D1
:10026000D9F72BE2AAE9B0E201C01D92A03EB20785
:10027000E1F779D20C94AA15C3CE84E0809356009E
:100280008CE189D3809363008BEB8093660080E8D8
:100290008093650081E08093600088ED84BF1092B8
:1002A000410083E080935000809151008330E1F75A
:1002B0008091500081608093500088E180935500C8
:1002C0008091510080FFFCCF80915000806180932D
:1002D00050008091510084FFFCCF88ED84BF84E002
:1002E000809340000895E0E7F0E085818E7F85836C
:1002F000E0E0FAE08FEB9DE586A397A380EE9EE217
:1003000080A391A382E0808308958091200A909138
:10031000210A813E2EE2920718F02091822106C028
:10032000803E2EE2920721F020917F2120936A00E7
:1003300020910520222321F080910520815033C097
:10034000885F9A42813D974080F110929A20809177
:100350009B2090919C20A0919D20B0919E20019681
:10036000A11DB11D80939B2090939C20A0939D2064
:10037000B0939E2080919B2090919C20A0919D20E5
:10038000B0919E20892F9A2FAB2FBB278093A2215B
:1003900080919B2090919C20A0919D20B0919E20C7
:1003A0008093A12186E08093052080910720909181
:1003B00008200196B1F4809109208F3F91F080913F
:1003C0000620811106C0809106208150809306206E
:1003D00008958091140190911501809307209093C6
:1003E00008200895009709F45EC00CF457C040E05F
:1003F00020916B0030E02093802130938121209167
:100400008021309181213695322F222737952795EB
:10041000209380213093812150916A002091802186
:1004200030918121250F311D20938021309381212E
:10043000000020918021309181212817390728F46C
:100440001092802110928121089520918021309175
:100450008121280F391F2115304238F08FEF9FE19D
:100460008093802190938121089520918021309163
:100470008121442329F0A901481B590BCA0102C05C
:10048000820F931F809380219093812180918021FE
:10049000909181218F7780936A000895919581953D
:1004A000910941E0A5CF0895CF93DF93C091200A31
:1004B000D091210A80910320909104209E01281B55
:1004C000390B209383213093842180919A208111CC
:1004D0004BC080918321909184218E3C9F4FD4F416
:1004E00080918321909184218B369F4F9CF0809145
:1004F0000220882321F080910220815008C0809141
:100500006A008093822181E080939A208CE080931E
:1005100002202AC08CE08093022080918321909158
:1005200084218A369F4F1CF08FEF9FEF02C081E03D
:1005300090E080937D2190937E2180918321909102
:10054000842120917D2130917E2160E370E00E9422
:100550008115261B370B20937D2130937E218091BE
:100560007D2190917E213EDF80919A20813029F576
:100570008091832190918421C39794F080910220EF
:10058000882331F08091022081508093022015C091
:1005900080916A0080937F2183E080939A200DC030
:1005A0008091832190918421873991051CF481E009
:1005B00090E002C08FEF9FEF15DFC0930320D09330
:1005C0000420DF91CF9108958617970779F0681777
:1005D000790728F49C01261B370BB90109C086173F
:1005E000970718F4681B790B03C0089560E070E06A
:1005F000CB010895CF93DF9380910020909101204B
:10060000892B51F0809100209091012001978093D7
:1006100000209093012043C080E490E0809300206C
:100620009093012080910720909108200196B9F1C4
:10063000809114019091150120910920263018F421
:1006400067E771E002C06EEE72E00E946D15EC018A
:1006500080910720909108208C179D0758F4609195
:10066000072070910820CE01AFDF029718F080ECD0
:100670009DE511C08091072090910820C817D907E7
:1006800070F46091072070910820CE019DDF0297E1
:1006900030F08FEB9DE58093360A9093370ADF9117
:1006A000CF910895AC01460F571F861B970B2091E1
:1006B000200A3091210A24173507C8F72091200A13
:1006C0003091210A8217930790F70895E0E8F6E049
:1006D0008FE0808385E0848308951F93CF93DF9319
:1006E000C0E4D0E0198180E4898340E250E068EB07
:1006F0007BE280E290E00E94470F1983DF91CF9167
:100700001F9108951F93CF93DF93C0E4D0E0198128
:1007100080E489838BEB95E20E947D0F81E00E944B
:100720008F0F1983DF91CF911F91089508950F9333
:100730001F932091A4208EEE92E0289FA001299F74
:10074000500D112444525A4D07E913E02EEE32E0C9
:1007500060E081E80E942A131F910F9108951CBE4A
:10076000EEEFF0E40994B9DF8091B82B882369F0AB
:1007700080E2E8EBFBE2ABEBB5E201900D928A95EB
:10078000E1F71092BB25BEDFEADF87E08093A2008D
:10079000789473DDCBDFACD749D16CD160E080E0D9
:1007A00003D1EFD08CE0E3D070D514D62DD68EDFF8
:1007B00060E870E28EE891E20E94A315000000005C
:1007C0000000000000000000000000000000000029
:1007D000000000000000000080919F20882371F33A
:1007E000E091BA238E2F90E088309105A0F4FC01AF
:1007F000E250FF4F0C94941568D10DC0D8D10BC0B6
:1008000064D209C0E8D207C073D305C0F8D303C0CF
:10081000F7D301C067D410929F20D0CF08950895D8
:10082000E09109208E2F90E08830910590F4FC0132
:10083000EA5FFE4F0C949415B9D10BC045D209C0A4
:10084000C9D207C054D305C0D9D303C04AD401C00C
:10085000BBD48091140180939721809115018093DE
:100860009821809124018093992180912501809382
:100870009A218091200A8093A3218091210A80935C
:10088000A42180911401909115018634914080F04B
:100890008091140190911501893A914048F480911A
:1008A0001401909115018093D82B9093D92B0000BF
:1008B0008091A220882339F016DD1092A22081E0D9
:1008C0008093A12008958091A120882341F08091F8
:1008D0009A20833019F419DD8DDE01C0E5DD8091A9
:1008E000A020882351F080911401909115018093EC
:1008F000D82B9093D92B1092A0209091A42081E026
:10090000911180E08093A42008950F931F9381E0BC
:100910008093A7208093A22007E913E02DE730E021
:100920004CED55E260E081E80E942A1381E01F91BE
:100930000F9108951092A720089581E0089581E015
:10094000089510922002982F9C7193689093200232
:1009500087FF03C080E192E002C080E090E0892B35
:100960008093210210922202109226020895E0E064
:10097000F2E010AA836880AB80E181AB12AA16AACC
:100980000895E0E0F2E010A683E880A78FE281A757
:1009900012A616A60895AAECB1E092E09C93E82F67
:1009A000F0E084911C920895909171009D7F909346
:1009B000710010920002623011F09CE101C09EE1D2
:1009C0009093010290E490930202811102C080E4AE
:1009D00001C080EC80930302613011F084E001C01B
:1009E00083E08093040280E2D6DF80930C0281E2F0
:1009F000D2DF80930D02109218021092190281E04A
:100A000080930002BECF1F920F920FB60F92112457
:100A10008F93000000000000000081E0809323021B
:100A20008F910F900FBE0F901F901895CF93DF936B
:100A3000E0E7F0E082818B7F8283C0E2D3E08DE04B
:100A4000888380E4898389E08A8383E3A4DF8887BD
:100A500082E3A1DF898787E39EDF8A8786E39BDFC6
:100A60008B87E0E2F6E08081836080831482DF91EF
:100A7000CF910895E0E7F0E080818E7F808380E869
:100A8000809300010895E0E0F1E0108A80E4808B1B
:100A900010A280A310AA80ABE0E4F1E01082808372
:100AA0001092A6201092A5201092A42010928C21C2
:100AB00010928D2110928A2110928B21089580939B
:100AC000BA2381E080939F200895CF93DF93109203
:100AD0000920D9DFC0E0D1E01EAA94E298AB19AAA0
:100AE00049E54AAB32E03BAB60910B2070910C20A2
:100AF0006CAB7DAB6BEB73E268AF79AF1AAE8BE397
:100B00008CAF83E08DAF1EAE28A9206828AB109271
:100B10004601E0E4F1E090831092410140934201EC
:100B20008093430140910D2050910E204093440149
:100B3000509345014AEA51E24093480150934901DC
:100B400010924A0129E320934C0180934D011092A9
:100B50004E01208120682083188A20E4288B24E01D
:100B6000288B898B85E98A8B80E18B8B47E751E065
:100B70004C8B5D8B988F398F1A8E8CED95E28C8F14
:100B80009D8F1E8E68EC70E084EF91E08BDD88EC29
:100B900090E0809307209093082081E080930620C6
:100BA00088898068888BDF91CF9108950895EF92AE
:100BB000FF921F93CF93DF9311E01093092063DF1F
:100BC000C0E0D1E018AA80E488AB94E098AB19AA01
:100BD0001AAA6BE46BAB1CAA1DAA1EAA2AE030E27B
:100BE00028AF39AF1AAEA0EAACAF58E05DAF1EAE89
:100BF00088A9806A88ABE0EAF8E085E58083808395
:100C000010924601E0E4F1E044E240831092410199
:100C100089E58093420132E030934301E0900B205C
:100C2000F0900C20E0924401F09245018BEBE82E0D
:100C300083E2F82EE0924801F092490110924A01B5
:100C40008BE380934C0183E080934D0110924E0121
:100C500020812068208398A389A325E92AA36BA378
:100C600067E771E06CA37DA3A8A759A71AA6EAECD1
:100C7000F8E2ECA7FDA71EA6988B898B2A8B80E152
:100C80008B8B6C8B7D8B488F398F1A8E8CED95E218
:100C90008C8F9D8F1E8E68EC70E084EF91E002DDFA
:100CA00088EC90E080930720909308201093062012
:100CB00088A1806888A388898068888BDF91CF911C
:100CC0001F91FF90EF90089508951F93CF93DF93A6
:100CD00012E010930920D7DEC0E0D1E01EAA94E212
:100CE00098AB19AA39E53AAB1BAB40910B20509158
:100CF0000C204CAB5DAB4BEB53E248AF59AF1AAE97
:100D00008BE38CAF83E08DAF1EAE28A9206828ABA3
:100D100010924601E0E4F1E090831092410130939B
:100D200042018093430120910D2030910E202093A9
:100D30004401309345012AEA31E22093480130937F
:100D4000490110924A0129E320934C0180934D01FF
:100D500010924E01208120682083188A20E4288B7D
:100D600064E0688B898B55E95A8B40E14B8B27E710
:100D700031E02C8B3D8B988F198F1A8EECEDF5E2BC
:100D8000EC8FFD8F1E8E68A389A35AA34BA32CA3BF
:100D90003DA384E388A719A71AA68AEC98E28CA73A
:100DA0009DA71EA668EC70E084EF91E07BDC88ECE8
:100DB00090E0809307209093082081E080930620A4
:100DC00088898068888B88A1806888A3DF91CF910B
:100DD0001F91089508951F93CF93DF9313E010930D
:100DE000092051DEC0E0D1E010924601E0E4F1E0DC
:100DF00024E220831092410199E59093420182E020
:100E00008093430140910B2050910C20409344016A
:100E1000509345014BEB53E24093480150934901F5
:100E200010924A018BE380934C0110934D01109274
:100E30004E018081806880831EAA28AB19AA9AABD4
:100E40001BAB80910D2090910E208CAB9DAB8AEA5C
:100E500091E288AF99AF1AAE89E38CAF1DAF1EAE99
:100E600088A9806888AB18A250E458A344E048A33E
:100E700019A21AA23BE43BA31CA21DA21EA28AE057
:100E800090E288A799A71AA620EA2CA798E09DA728
:100E90001EA688A1806A88A385E58093A008188A89
:100EA000588B488B198B85E98A8B3B8B47E751E040
:100EB0004C8B5D8B288F998F1A8E8CED95E28C8FE1
:100EC0009D8F1E8E68EC70E084EF91E0EBDB88EC88
:100ED00090E0809307209093082081E08093062083
:100EE00088898068888BDF91CF911F91089508953C
:100EF0001F93CF93DF9314E010930920C4DDC0E06B
:100F0000D1E018AA80E488AB18AB19AA1AAA3BE46E
:100F10003BAB1CAA1DAA1EAA8AE090E288AF99AF3B
:100F20001AAE50EA5CAF88E08DAF1EAE98A9906A09
:100F300098AB95E59093A00810924601E0E4F1E0AB
:100F400094E290831092410199E59093420192E0DE
:100F50009093430160910B2070910C2060934401A9
:100F6000709345016BEB73E2609348017093490104
:100F700010924A019BE390934C0193E090934D01B2
:100F800010924E01208120682083188B998B45E9AF
:100F90004A8B3B8B27E731E02C8B3D8B588F898F19
:100FA0001A8E6CED75E26C8F7D8F1E8E18A399A33F
:100FB0004AA39AE49BA32CA33DA393EC98A789A7EB
:100FC0001AA68AEC98E28CA79DA71EA668EC70E092
:100FD00084EF91E067DB88EC90E0809307209093AA
:100FE000082081E08093062088898068888B88A10A
:100FF000806888A3DF91CF911F9108950895FFCF56
:10100000CF93DF9386E0809309203DDDC0E0D1E0FF
:101010001EAA84E288AB19AA39E53AAB93E09BABF0
:1010200040910D2050910E204CAB5DAB4AEA51E24D
:1010300048AF59AF1AAE29E32CAF9DAF1EAE28A919
:10104000206828AB10924601E0E4F1E08083109222
:1010500041013093420122E02093430140910B2053
:1010600050910C2040934401509345014BEB53E2C7
:10107000409348015093490110924A013BE3309359
:101080004C0190934D0110924E0190819068908395
:10109000188A90E4988B888B198A95E99A8B90E14D
:1010A0009B8B4CED55E04C8B5D8B888F298F1A8E76
:1010B0008CED95E28C8F9D8F1E8E68EC70E084EF36
:1010C00091E0F0DA80E991E0809307209093082086
:1010D00081E08093062088898068888BDF91CF919A
:1010E00008950895CF93DF9387E080930920CBDCA8
:1010F000C0E0D1E01EAA84E288AB19AA39E53AAB78
:1011000093E09BAB40910D2050910E204CAB5DAB1A
:101110004AEA51E248AF59AF1AAE29E32CAF9DAF6E
:101120001EAE28A9206828AB10924601E0E4F1E049
:101130008083109241013093420122E020934301C9
:1011400040910B2050910C20409344015093450155
:101150004BEB53E2409348015093490110924A01EE
:101160003BE330934C0190934D0110924E019081DE
:1011700090689083188A90E4988B95E2988B198AEE
:1011800095E99A8B90E19B8B4CED55E04C8B5D8BF8
:10119000888F298F1A8E8CED95E28C8F9D8F1E8EF5
:1011A00068EC70E084EF91E07DDA80E991E0809373
:1011B00007209093082081E080930620888980682A
:1011C000888BDF91CF91089508951F920F920FB6EB
:1011D0000F9211248F939F9381E0809303011092CB
:1011E000100184E08093100187E791E0809314015F
:1011F000909315018091A420811103C08EEE92E09E
:1012000002C080E090E084529A4D80931C0190933C
:101210001D01809110018068809310019F918F9132
:101220000F900FBE0F901F9018951F920F920FB640
:101230000F9211248F939F9382E080930301109269
:10124000200184E08093200187E791E080932401CE
:10125000909325018091A420811103C085E694E03C
:1012600002C087E791E084529A4D80932C019093BD
:101270002D01809120018068809320019F918F91A2
:101280000F900FBE0F901F901895E0E7F0E083815C
:101290008C7F838384818C7F848380818D7F808316
:1012A000E0E8F1E080EC8283128688EC818311868D
:1012B000A0E0B8E034E03C9323E011962C93119722
:1012C00014961C92149785ED91E096968D939C93BD
:1012D000979716961C921697E0E4F8E030832183E6
:1012E000148286A397A31682E0E6F6E080818061EF
:1012F0008083E0E4F9E083E18183148282E08683E5
:10130000A6A3B7A310A611A681E0808308951F921B
:101310000F920FB60F9211242F933F934F935F9329
:101320008F939F93CF93DF931F92CDB7DEB78FEF4D
:1013300080934C0980910920873031F480912C02F0
:10134000898390912D0202C090912C028091A3205C
:10135000891B209168093091690982308CF02A3FFD
:10136000374070F4209168093091690989301CF484
:1013700081E090E002C086E090E0820F931F18C0E9
:1013800020916809309169098F3FB4F42730310505
:1013900098F02091680930916909883F1CF081E03C
:1013A00090E002C086E090E0A901481B590BCA01F9
:1013B00080937809909379090F90DF91CF919F9155
:1013C0008F915F914F913F912F910F900FBE0F9092
:1013D0001F901895E0E7F0E083818F7E8383E0E43F
:1013E000F6E080818A6A80838FEF848388E5828B30
:1013F000E0EAF8E080E3838384EC858387E08683FA
:10140000178288E184830895E0E7F0E08381877F95
:101410008383E0ECF8E0118288E58093550680E64E
:10142000808308951F920F920FB60F92112400002F
:101430000F900FBE0F901F9018951F920F920FB62E
:101440000F9211248F93EF93FF93E0EAF8E08081ED
:101450008083FF91EF918F910F900FBE0F901F909F
:1014600018959FB7F894A0E5B0E016968C91169762
:10147000897F16968C931697E0E6F0E080E88583E6
:101480008BEB868316968C911697846016968C93B8
:101490008081816080839FBF08959FB7F894E82F73
:1014A000F0E0E059FF4F60958081682360839FBF23
:1014B0000895CF93863011F0C0E001C0C8E180915B
:1014C000510081FD0DC09FB7F8948091500082605B
:1014D000809350009FBF8091510081FFFCCFC1DFFE
:1014E0006C2F636084E490E0B7D460E480E0CF9137
:1014F000D4CF8091A82008958091A820813009F44C
:1015000019CA0895F0D0FC0183818093A82081112D
:1015100001C0FBC981E008959091AA23892F8076AC
:1015200097FF07C0803491F48091AB2381110EC0E6
:1015300006CA803459F48091AB23811107C0809191
:10154000B0239091B123892B09F0F7C980E0089569
:101550008091AC238F770C94B4129091B0209111AC
:1015600002C080E00895E091AD20F091AE2001909E
:10157000F081E02D94818917A0F7E093AB20F093E0
:10158000AC20228133812E0F3F1FE217F30798F41E
:101590009181943061F49281891309C09381691318
:1015A00006C0E093AB20F093AC2081E008959081D9
:1015B000E90FF11DEACFE093AB20F093AC20D1CF3F
:1015C000E091AD20F091AE200190F081E02D2281DC
:1015D00033812E0F3F1FFC014081E40FF11DE21704
:1015E000F30748F48181843031F0853039F080810F
:1015F000E80FF11DF4CF80E090E00895CF01089549
:101600001F93CF93DF93182FA8DF882339F1C09160
:10161000AB20D091AC20CE01D3DFEC01892B41F07F
:101620004C815D816B818A81ACD78111F4CF16C06A
:10163000E091AD20F091AE2092818381E92FF82FC7
:10164000E10FF11DE10FF11D0190F081E02D0190FE
:10165000F081E02DDF91CF911F91099480E0DF911F
:10166000CF911F910895EF92FF921F93CF93DF9335
:10167000C82F60E072DF811102C010E02DC0E09140
:10168000AD20F091AE2092818381E92FF82FEC0FED
:10169000F11DEC0FF11DE080F180D7011696ED9160
:1016A000FC9117970995682F8C2F57DF182F8823E7
:1016B00021F3C091AB20D091AC20CE0181DFEC01B1
:1016C000892B21F08A810E94D413F7CFD70112967B
:1016D000ED91FC9113970995812FDF91CF911F9187
:1016E000FF90EF9008958091AB209091AC200895E9
:1016F000DDC6CF938091B020882311F0C0E008C0F0
:101700001092B0201092B4201092B520CF9108957D
:10171000E091AD20F091AE200190F081E02D848128
:10172000C81770F78C2F9FDFCF5FF2CFCF938091D8
:10173000B0208823F1F0C0E0E091AD20F091AE2020
:10174000A081B18114968C91C81798F492818381FD
:10175000E92FF82FEC0FF11DEC0FF11D0190F08136
:10176000E02D0084F185E02D309709F00995CF5FD9
:10177000E3CFCF9108950F931F93CF93DF931092F0
:10178000B4231092B5231092B6231092B72310926F
:10179000B8231092B9238091AA2387FF07C0209114
:1017A000B0233091B123232B09F450C3982F9076A6
:1017B000903409F00DC1E091AB238E2F90E0FC0135
:1017C000E05AF109EA30F10508F0CDC2E25FFE4FC0
:1017D0000C94941581E08093A02080910720909133
:1017E000082080939B21809107209091082090935E
:1017F0009C218091822180939D2180917F218093E3
:101800009E2180916A0080939F2180916B0080933C
:10181000A0216091B0237091B1238EE891E2D6C0EF
:10182000109200088091AC239091AD2380933608EC
:10183000909337088091AE238F7080930008609159
:10184000B0237091B1238AEA91E294D68091B023BB
:101850009091B12320910D2030910E208217930793
:1018600009F4BFC280930D2090930E2026C01092E1
:1018700040088091AC239091AD238093760890939B
:1018800077088091AE238F70809340086091B023D9
:101890007091B1238BEB93E26DD68091B023909140
:1018A000B12320910B2030910C208217930709F46B
:1018B00098C280930B2090930C208091092053C0F4
:1018C00010926809109269098091AC238093A3203B
:1018D00088C28091AC238093240683C2E091AC231C
:1018E000F091AD23E830F10508F03DC2E85EFE4F0F
:1018F0000C94941560E080E057D88091AE2321D8F5
:1019000080E031C060E080E04FD88091AE2319D8EC
:1019100081E029C061E081E047D88091AE2311D8F1
:101920008091AF2324D882E01EC083E01CC084E0F5
:101930001AC060E080E038D88091AE2302D885E0FC
:1019400012C061E080E030D88091AE230E94A104F3
:1019500086E009C062E080E027D88091AE238068ED
:101960000E94A10487E0ABD83CC28091AC23809355
:10197000840637C28091AC239091AD23892B91F0DE
:101980000E946D0380E2E8EBFBE2ABEBB5E2019075
:101990000D928A95E1F781E08093BB250E94820336
:1019A0000E946D03E9E7F0E091E088EDF89484BFD0
:1019B00090836091B0237091B1238AE890E206C0D1
:1019C0006091B0237091B12389E890E2D3D509C228
:1019D0009111C9C187FFFBC02091B0233091B12381
:1019E0002115310509F4BFC18F7109F09EC08091A6
:1019F000AB23863071F0883009F48EC08111B3C1F9
:101A00002230310509F0AFC162E070E084EB90E272
:101A1000DDCF8091AC239091AD23292F3327223045
:101A20003105A1F060F42130310509F09CC18091AD
:101A3000192090911A20DC016C9170E05BC023307A
:101A4000310589F12F30310509F18DC1E09119205F
:101A5000F0911A202189821708F085C19927880FF3
:101A6000991F880F991FE0911B20F0911C20E80F0F
:101A7000F91F80819181FC01628173817BD5E091A6
:101A8000B223F091B32382E0818335C080911D2081
:101A900090911E20009709F466C1DC0112966D91A9
:101AA0007C91139727C099278130910569F038F010
:101AB000029709F058C168E08AE690E208C064E045
:101AC00070E08CE790E216C067E083E790E2282F91
:101AD000AAE5B0E2FC01819190E08D939D938E2F59
:101AE000821B8617C0F3660F6E5F6093582070E00C
:101AF00088E590E23FD58091B0239091B123209169
:101B0000B4233091B5238217930708F06AC18093FC
:101B1000B4239093B52365C12130310509F023C169
:101B200061E070E080EB90E251CF8130C1F58091AF
:101B3000AB238A3009F017C12130310509F013C1F8
:101B40008091B020882309F40EC1C091AE23D091BA
:101B5000AF230091AD201091AE20D801ED91FC9102
:101B60008481C81708F0FFC060E08C2FF6DC882362
:101B700009F4F9C0DD27CC0FDD1FF80182819381C4
:101B8000C80FD91FE881F9810680F781E02D0995FA
:101B90008093B22061E070E082EB90E217CF823058
:101BA00009F0E1C08091AB238111DDC02230310505
:101BB00009F0D9C08091AE232DD590E08093A92063
:101BC0009093AA2062E070E089EA90E2FFCE8F71E4
:101BD00009F07DC08091AB23833009F4C4C018F4B0
:101BE0008130A1F0C0C0853019F0893039F1BBC017
:101BF0008091B0239091B123892B09F0B4C088EA79
:101C00009AE08093B6239093B723EBC08091B023E2
:101C10009091B123892B09F0A6C08091AC239091BB
:101C2000AD23019709F09FC08091B4209091B52019
:101C30008D7F8093B4209093B520D3C08091B02342
:101C40009091B123892B09F08EC091D4882309F497
:101C50008AC02091AC233091AD233327E091192025
:101C6000F0911A20818990E08217930708F47BC0D5
:101C700040DD8091AC239091AD238093B0208823E8
:101C800009F4AFC099278150904C880F991F880F95
:101C9000991F20911B2030911C20820F931F80934D
:101CA000AD209093AE20C0E0E091AD20F091AE2049
:101CB0000190F081E02D8481C81708F092C060E0A7
:101CC0008C2F9EDC882309F44EC0CF5FEDCF81308E
:101CD000E9F48091AB238B3009F045C08091B023AB
:101CE0009091B123892B09F03EC08091B0208823C8
:101CF00009F439C0C091AE23D091AC238C2FB3DC52
:101D0000882389F16D2F8C2F7BDC2BC0823059F515
:101D10008091AB23813019F0833089F024C0809109
:101D2000B0239091B123892BF1F48091AC23909151
:101D3000AD23892BC1F48091AE2373D412C080915E
:101D4000B0239091B123892B71F48091AC239091B1
:101D5000AD23892B41F48091AE23F6D48091AE233C
:101D60002CD581113EC08091AA238F718130D9F585
:101D70008091B020882309F469C0C091AE23D0912E
:101D8000AF230091AD201091AE20D801ED91FC91D0
:101D90008481C81708F05AC060E08C2FDEDB8823EE
:101DA00011F1FE01FF27EE0FFF1FD80112968D9152
:101DB0009C911397E80FF91F00811181D8011696A5
:101DC000ED91FC9117970995682F8C2FC6DB88231E
:101DD00051F0D8011496ED91FC911597099588233F
:101DE00011F081E034C08091AA238F71823071F5A7
:101DF0008091B020882351F1C0E0E091AD20F091B6
:101E0000AE20A081B18114968C91C817F8F492810C
:101E10008381E92FF82FEC0FF11DEC0FF11D0081EC
:101E20001181D8011696ED91FC9117970995682FAD
:101E30008C2F93DB882351F0D8011496ED91FC91FF
:101E4000159709958111CDCFCF5FD7CF80E0DF9176
:101E5000CF911F910F9108951BBEFC0128ED24BF67
:101E6000608308958091CF0187FDFCCF08951F9373
:101E7000CF93DF93C0ECD1E01A858A8761E08BECC9
:101E800091E0EADF1A87DF91CF911F910895CF92F9
:101E9000DF92EF92FF920F931F93CF93DF938C010A
:101EA0007B016A01DFDFCCECD1E088818860888328
:101EB000B801705FA601C7013DD68881877F8883FE
:101EC000DF91CF911F910F91FF90EF90DF90CF9016
:101ED0000895CF93DF93C82FD62FC4DFACECB1E0C9
:101EE0008C9188608C93EC2FF0E0F05FD0838C9124
:101EF000877F8C93DF91CF9108950F931F93CF939A
:101F00008C01B0DFC0E0F80161918F018C2FE1DF1F
:101F1000CF5FC032C1F7CF911F910F910895CF933A
:101F2000C82FA0DF20E2C29FC0011124E0ECF1E045
:101F300012829183808385E3CF9199CF4091CA012A
:101F4000E62FF72F8093CA0184914093CA01089528
:101F5000E82FF0E0E652F44D80818F3F09F4FFCF87
:101F60009FB7F89480818F5F80839FBF0895E82F8B
:101F7000F0E0E652F44D8081811101C0FFCF9FB7A0
:101F8000F8948081815080839FBF0895CF93C82F9C
:101F900080917C21C11105C0882339F081E0E7DF01
:101FA00004C0811102C081E0D3DFC0937C21CF91B6
:101FB0000895282F2F70082E000C990B392F331FEE
:101FC0003327331F832F90E0820F911D820F911DC5
:101FD00023E0880F991F2A95E1F7885A9E4D0895AE
:101FE0000F93E8ECF4E080818F7D808380818F7D8A
:101FF0008083E0E6F1E202E0059310926221109204
:10200000632100E2069300E40693E8E5F1E200E2D2
:10201000069300E40693EAEAF3E214861586168630
:1020200017861286138610924D210F9108950F93F3
:1020300085E080934D21E1E6F1E204E00593E9E5D6
:10204000F1E204E005930F9108950F9383E08093EC
:102050004D211092622110926321E0E6F1E202E04C
:1020600006930F910895E091B623F091B72330972E
:1020700009F009940895282F2F70082E000C990B51
:10208000392F331F3327331F832F90E0820F911D89
:10209000820F911D029749E0489F9001499F300DA2
:1020A0001124C90189509F4D0895AF92BF92DF92CC
:1020B000EF92FF920F931F93CF93DF93D82EDBDF26
:1020C000EC018D2D76DF7C01DC011196EC91E7703F
:1020D000E150E73040F4F0E0EE0FFF1FE457FF4D12
:1020E0000081118102C008E010E02D813E818B81CA
:1020F0009C814881D7FE4AC0F70166817781260F0F
:10210000371F2D833E8328173907A1F1BC01621BBD
:10211000730B9B01211574E0370738F02FEF33E084
:10212000C901B801DAD4281B390B41FF0AC0C90123
:10213000B801D3D4AC0191E0452B09F090E0892F90
:1021400001C080E0988180FB91F99883D7011696B1
:102150001D921C92179712962D933C9313972981E9
:102160003A818D819E81820F931F14968D939C934B
:10217000159708C041FF78C04D7F488316821782AB
:1021800012821382F70102E0069385C0D7011296EE
:10219000AD90BC90139742FF0FC0E981FA81B8015E
:1021A0009CD4B0E4DB9EB001112469587F4DAC0192
:1021B000CF01820F931FBED42D813E812A0D3B1D7E
:1021C0002D833E838B819C818217930710F48D832E
:1021D0009E83F70126813781A216B30609F044C019
:1021E0002D813E818217930709F43EC0AC01421B4A
:1021F000530B9A01211554E0350750F02FEF33E0CF
:10220000C901B8016AD4B901681B790BCB0107C0B9
:10221000C901B80162D4D901A81BB90BCD01F701DE
:10222000128213828017910798F4888184608883D2
:10223000F0E4DF9EC001112489589F4DD701149608
:102240008D939C93159716960D931C9317979ACF81
:1022500049815A812D813E81240F351FF701248346
:102260003583868397838ECF888180FF14C08E7FCD
:102270008883EF81F885309771F06D817E814D2DD7
:1022800080E0DF91CF911F910F91FF90EF90DF9051
:10229000BF90AF900994DF91CF911F910F91FF9064
:1022A000EF90DF90BF90AF9008950F93CF93DF939F
:1022B00080914D21833029F4D6DEDF91CF910F91AB
:1022C0008FCE2091492130914A21C091B423D091E1
:1022D000B523C21BD30B61F580914B2190914C210A
:1022E000820F931F80934B2190934C212091B02318
:1022F0003091B1238217930721F08091B620882373
:1023000031F084E080934D21E8E5F1E236C0E091C0
:10231000B823F091B923309799F00995882381F07B
:102320001092492110924A21C091B423D091B52333
:10233000C034D10528F01092B620C0E4D0E003C02C
:1023400081E08093B620C0936221D0936321809175
:10235000492190914A212091B2233091B323280F33
:10236000391F2093642130936521C80FD91FC09372
:102370004921D0934A21E0E6F1E202E00693DF91A1
:10238000CF910F9108950F93CF938091CC0480FF4C
:1023900063C021E02093CC0488E591E2FC0100E8D1
:1023A0000693E0E6F1E200E806932093CA04FC01FC
:1023B00000E1069380914D21882329F083508230DB
:1023C00008F451DE0DDE80915A2190915B2108972F
:1023D00009F044C088E0E9E0F1E2AAEAB3E2019042
:1023E0000D928A95E1F78091C80480628093C804B9
:1023F0008091C80480628093C804BDD9C82F811120
:1024000002C015DE2BC08091AA2387FF0DC0109259
:102410004B2110924C211092492110924A2182E0C6
:1024200080934D2142DF1BC08091B0239091B12356
:10243000892B11F40ADE13C010924B2110924C210B
:102440001092492110924A2181E080934D21E8E5C4
:10245000F1E202E0069303C0C0E001C0C1E08C2FAE
:10246000CF910F910895CF93CFB7F89481E08EDD8F
:10247000EAECF4E080E4808380E28083E1ECF4E045
:10248000808181608083A9ECB4E08C9182608C9320
:10249000E8ECF4E08081806480838C9181608C938F
:1024A000808180688083CFBFCF910895CF931092B1
:1024B000600080E30E94590A8091C0048064809388
:1024C000C00481E080936000CFB7F8941092592146
:1024D0001092612110926921109271218091F72050
:1024E0008E7F8093F720809100218E7F8093002142
:1024F0006AE170E082E022DD8F3F09F48FE1809392
:10250000FA046BE170E082E019DD8F3F09F48FE19E
:102510008093FB048091C00481608093C00480910B
:10252000C00480688093C0048091C004806180935F
:10253000C00488E591E28093C6049093C70480911B
:10254000C00480628093C0048FEF8093C5048091A3
:10255000C80482608093C80410927C2185E0F8DC76
:1025600082DFCFBFCF9108958093C30408958091F7
:10257000C3040895EAEAF3E280879187628773874C
:1025800008951F93CF93DF93162FEA0112DDFC010C
:102590008181807CD1F5612F6370613019F020F06A
:1025A00080E803C080EC01C080E4C038D105E1F0D0
:1025B00050F4C032D105A1F0C034D10599F0609734
:1025C000C9F491E018C0C11592E0D90779F0CF3F66
:1025D00093E0D90769F0C115D14061F495E00BC0D3
:1025E00092E009C093E007C094E005C096E003C004
:1025F00097E001C090E0118226E02083982B918320
:1026000081818062818381E001C080E0DF91CF9190
:102610001F910895CEDCFC01818182FB882780F91F
:102620000895CF93C82FC5DCFC01818182FF0FC0C4
:1026300081818B7F81838C2F1EDDFC01908190FF37
:1026400006C09E7F90830780F085E02D099581E08C
:10265000CF910895AF92BF92CF92DF92EF92FF9207
:102660000F931F93CF93DF93D82EC62E5A01790173
:1026700002DDEC018D2D9DDC9C01DC0111968C911D
:102680001197807C09F454C011968C911197807C2D
:10269000803C21F011968C9182FD4AC09FB7F8943E
:1026A000888180FF02C09FBF43C0816088839FBF35
:1026B000A982BA82EB82FC821D821E820F83188758
:1026C00091E0C11004C0E114F10409F090E08881A8
:1026D00090FB81F98B7F8883D7FE02C0F90122C06D
:1026E000D90111968C911197807C803CC1F4119690
:1026F000EC91E770E150E73040F4F0E0EE0FFF1F9F
:10270000E457FF4D6081718102C068E070E0C7014D
:10271000E4D1892B21F088818E7F888309C0F9015B
:1027200012821382168217828D2DBFDC81E001C0D8
:1027300080E0DF91CF911F910F91FF90EF90DF909C
:10274000CF90BF90AF900895EF92FF920F93CF93E9
:10275000C82F2FDC7C018C2F8EDCDC01F70102E01E
:1027600005939C9190FF1BC09E7F9C931796ED91C3
:10277000FC911897309799F0D701C7FF05C01696BE
:102780006D917C91179704C012966D917C9113976F
:102790004C2F81E0CF910F91FF90EF900994CF9152
:1027A0000F91FF90EF900895CF93C82FCDDF8C2F1E
:1027B00000DCFC011182CF9108950F93CF93C82FB5
:1027C000F8DBFC0181818460818301E006938C2F1A
:1027D000BBDF81E0CF910F9108951F920F920FB64A
:1027E0000F9211240F932F933F934F935F936F9307
:1027F0007F938F939F93AF93BF93EF93FF938091BA
:10280000CB0487FF08C080E88093CA040E94960B1F
:102810000E9410047EC08091CB0482FF18C084E027
:102820008093CA048091602186FF73C08091CC049C
:1028300081FD6FC0A8DD81116CC080914D21813078
:1028400011F403DC66C0843009F063C021C08091BC
:10285000CB0481FF26C082E08093CA048091582176
:1028600086FF57C08091CC0481FD53C08CDD81115F
:1028700050C080914D21823041F484E080934D21FD
:10288000E8E5F1E202E0069344C0833009F041C07C
:10289000E1E6F1E204E00593E9E5F1E204E0059305
:1028A00038C08091CB0484FF1DC080E18093CA04AE
:1028B0000E94790B1092C3041092592196E09093D4
:1028C000582183E4809359211092612190936021D3
:1028D0008093612189E091E280935C2190935D2156
:1028E0007FDB17C08091CB0486FF08C080E4809313
:1028F000CA0480E04BDB0E940E040BC08091CB0425
:1029000085FF07C080E28093CA0481E03FDB0E941C
:102910000F04FF91EF91BF91AF919F918F917F91A4
:102920006F915F914F913F912F910F910F900FBE3B
:102930000F901F9018951F920F920FB60F921124AF
:102940000F931F932F933F934F935F936F937F93B7
:102950008F939F93AF93BF93CF93DF93EF93FF93A7
:102960008091CC0481FF1AC082E08093CC048091D6
:10297000C5048195880FE8E5F1E2E81BF1092081A3
:1029800031812855314283E0369527958A95E1F7C4
:10299000822F869520FD06C0C0E005C0F4DC8823A8
:1029A00019F386C0C0E8C80F8C2F03DBFC0120811F
:1029B00025FF7EC000E20693C11174C080914D21B5
:1029C000843019F450DB0CDB73C000915A21109154
:1029D0005B218091B4239091B523C0914921D0917E
:1029E0004A2198012C0F3D1F8217930718F48C0180
:1029F0000C1B1D0B8091B2239091B323A80169E0B9
:102A000071E28C0F9D1F96D0C00FD11FC09349213A
:102A1000D0934A210034110569F480914B219091A3
:102A20004C218C0F9D1F2091B0233091B123821730
:102A3000930788F0C093B423D093B523E091B823D3
:102A4000F091B923309729F00995811102C0EFDA8E
:102A50002FC0FBDA2DC08091B4239091B523C81705
:102A6000D907D9F4E091B823F091B923309779F3DD
:102A70000995882361F320914B2130914C2180915D
:102A8000492190914A21820F931F80934B2190936B
:102A90004C211092492110924A21E8E5F1E202E02E
:102AA000069306C0C03811F400DC02C08C2FFDDA9A
:102AB000FF91EF91DF91CF91BF91AF919F918F9156
:102AC0007F916F915F914F913F912F911F910F9146
:102AD0000F900FBE0F901F901895AA1BBB1B51E1C2
:102AE00007C0AA1FBB1FA617B70710F0A61BB70B7E
:102AF000881F991F5A95A9F780959095BC01CD0123
:102B0000089597FB072E16F4009406D077FD08D0A1
:102B1000E4DF07FC05D03EF4909581959F4F089522
:102B2000709561957F4F0895EE0FFF1F0590F4910A
:102B3000E02D0994FB01DC0102C001900D9241508F
:102B40005040D8F70895FB01DC0101900D92002060
:082B5000E1F70895F894FFCFAE
:102B580040000CE02E0AFFFFFFFF55800080008236
:102B68000A7C0A8C0A790A000044201F20000028E9
:102B78002023200F20000000090219000101008015
:102B8800FA0904000001FFFFFF0007058101FF03A8
:102B9800010000001201000200000040EB0394BA9B
:102BA8000002010200010000000300000000000014
:102BB800000000000000000000004C6162726164C7
:102BC8006F72004573706F54656B0000040309044D
:102BD800646562756731323300020400100020001A
:0A2BE8004000800000010002FF031E
:00000001FF
